:100000000C942A000C9447000C9447000C94470071
:100010000C9447000C9447000C9447000C94470044
:100020000C9447000C9447000C9447000C94470034
:100030000C9447000C940D080C9436080C9447005F
:100040000C9447000C9447000C9447000C94470014
:100050000C94470011241FBECFE5D8E0DEBFCDBF12
:1000600011E0A0E6B0E0E8E9F2E102C005900D92EF
:10007000AC30B107D9F722E0ACE0B1E001C01D928D
:10008000A73FB207E1F70E9401080C944A090C94BB
:1000900000009DE09A95F1F70000882314F4DA9AA5
:1000A00001C0DA9886FF02C0DB9A01C0DB9885FFA9
:1000B00002C0DC9A01C0DC9884FF02C0DD9A01C056
:1000C000DD98DE9ADE9883FF02C0DA9A01C0DA98E2
:1000D00082FF02C0DB9A01C0DB9881FF02C0DC9A7C
:1000E00001C0DC9880FF02C0DD9A01C0DD98DE9A75
:1000F000DE980895DF9881E00E94490083EF91E047
:100100000197F1F700C000000895DF9880680E9411
:100110004900089590E4699F800D11240E94850094
:100120000895D79AD69AD29AD39AD49AD59ADF9824
:10013000DE9885EA9EE00197F1F700C00000DD9AA5
:10014000DC9ADB98DA98DE9ADE9881EE94E00197EB
:10015000F1F700C00000DE9ADE9892E49A95F1F77C
:1001600000C0DE9ADE9882E48A95F1F700C0DD983F
:10017000DC9ADB98DA98DE9ADE9888E20E944900E1
:100180008CE00E9449000E947A0086E00E944900AB
:100190000895CF93DF93EC01DF9A8881882331F0B3
:1001A00021960E94490089918111FBCFDF91CF9167
:1001B0000895DF9A0E9449000895EF92FF920F93ED
:1001C0001F93CF93DF93CDB7DEB7C456D1090FB6D7
:1001D000F894DEBF0FBECDBFBC01CE0101967C01FD
:1001E000FC0100E010E02AE030E001C08C01CB010E
:1001F000B9010E94E60890E3980F9193C801019617
:100200006115710599F7112364F00C0F1D1F0E5F26
:100210001F4FF80182918F010E94D9000E151F0512
:10022000C1F7CC59DF4F0FB6F894DEBF0FBECDBF7C
:10023000DF91CF911F910F91FF90EF90089592E081
:10024000961B692F0E948A000895CF92DF92EF9249
:10025000FF920F931F93CF93DF93CDB7DEB7C456B2
:10026000D1090FB6F894DEBF0FBECDBF6C01CE0131
:1002700001967C0100E010E001C089010E94D408D1
:10028000892BE1F30E946F08F70181937F019801A8
:100290002F5F3F4F803289F7E1E0F0E0EC0FFD1F68
:1002A000E00FF11F1082BE016F5F7F4FC6010E94F9
:1002B0000E09CC59DF4F0FB6F894DEBF0FBECDBF8D
:1002C000DF91CF911F910F91FF90EF90DF90CF9032
:1002D00008950F931F93CF93DF9300D000D01F9208
:1002E000CDB7DEB78E010F5F1F4FC8010E942501F9
:1002F000D8010D900020E9F7F801AD0141505109F6
:1003000080E090E011C09C01220F331F880F991FDD
:10031000880F991F880F991F820F931F219130E03A
:1003200020533109820F931FE417F50761F70F90EF
:100330000F900F900F900F90DF91CF911F910F9121
:1003400008950E947A008EE690E00E94C900089508
:1003500086B3282F217030E0C901B1990A96B29B6B
:1003600002C08C599F4F0895CF93DF93EC010E94F8
:100370007A0062E080E00E948A008FEB90E00E94A9
:10038000C90062E080E00E948A008AE790E00E9453
:10039000C90061E082E00E948A008CE790E00E9440
:1003A000C90062E082E00E948A00219729F48AE86D
:1003B00090E00E94C90004C086E990E00E94C90054
:1003C000DF91CF910895CF93C0E061E08C2F0E9420
:1003D0008A008FEB90E00E94C900CF5FC031A9F77F
:1003E000CF9108950F931F93CF93DF938C010E94B9
:1003F000E30161E080E00E948A008CE1809FE001DF
:10040000819FD00D1124CE01825F9E4F0E94C900B2
:1004100061E088E00E948A00C45FDE4F8E899F8978
:100420000E94DD0061E08EE00E948A00888D998D37
:100430000E94DD00DF91CF911F910F9108952FEF62
:1004400080E792E0215080409040E1F700C000003A
:100450000E947A0082EA90E00E94C90061E086E092
:100460000E948A0082EB90E00E94C9000E94A801CD
:10047000209162003091630082179307B9F72FEF44
:1004800080E792E0215080409040E1F700C00000FA
:100490000895EF92FF920F931F93CF93DF93EC0198
:1004A0000E947A00CE010E94C90061E082E00E94B1
:1004B0008A0086EB90E00E94C90061E08CE00E9417
:1004C0008A008BEB90E00E94C9002FEF80E792E05A
:1004D000215080409040E1F700C00000C1E0D0E032
:1004E00001E010E0E12CF12C0E94A801C130D105FF
:1004F00009F520916600309167008217930739F063
:10050000209168003091690082179307B1F561E08E
:1005100082E00E948A008FEB90E00E94C90061E0B7
:100520008BE00E948A008AE790E00E94C900CE2DED
:10053000DF2D2AC0209709F52091660030916700D1
:100540008217930739F02091680030916900821773
:10055000930799F461E08BE00E948A008FEB90E0B2
:100560000E94C90061E082E00E948A008AE790E070
:100570000E94C900C02FD12F07C020916200309186
:1005800063008217930751F08FEF90E722E08150CC
:1005900090402040E1F700C00000A6CFCE01DF91DF
:1005A000CF911F910F91FF90EF9008950F931F939C
:1005B000CF93DF930E94E10881E30E948A080E94A2
:1005C000D408892BE1F30E9469019093B1028093D2
:1005D000B002181619061CF5CEE0D1E000E010E0DC
:1005E0000E946901FE01329791838083CE010E94AF
:1005F00025010E9469019D8B8C8B0E9469019F8B54
:100600008E8B0E946901998F888F0F5F1F4F6C96A8
:100610008091B0029091B102081719070CF3DF9195
:10062000CF911F910F9108950F931F93CF93DF9355
:100630008091B0029091B1021816190604F5CCE031
:10064000D1E000E010E08EEB90E00E94C5088881C8
:1006500099810E949B0880E20E948A08888D998D6A
:100660000E949B0880E20E948A080F5F1F4F6C96D1
:100670008091B0029091B1020817190724F3DF911D
:10068000CF911F910F9108951F93CF93DF930E94F5
:10069000A1010E94D6020E947A0085E890E00E94A3
:1006A000C90060E070E088E090E00E941F0181ECEA
:1006B00090E00E94C90060E070E08EE090E00E944F
:1006C0001F018BEB90E00E94C90061E070E080E0C8
:1006D00090E00E941F018EE091E00E94C90061E05D
:1006E00070E088E090E00E941F01CCE0D1E08E89AC
:1006F0009F890E94DD0061E070E08EE090E00E9442
:100700001F01888D998D0E94DD00C0E0D0E01CE1C2
:100710000E94A80120916C0030916D008217930710
:1007200069F4209731F4C091B002D091B1022197C1
:1007300001C02197CE010E94F201F2C020916A000F
:1007400030916B008217930781F48091B0029091F1
:10075000B10201978C179D0711F0219602C0C0E0ED
:10076000D0E0CE010E94F201DBC020916600309102
:10077000670082179307D1F41C9FF0011D9FF00DB5
:100780001124E45FFE4F808D918D009709F4C8C05D
:100790001C9FF0011D9FF00D1124E45FFE4F019797
:1007A000918F808FCE010E94F201BAC02091680023
:1007B000309169008217930781F41C9FF0011D9FFF
:1007C000F00D1124E45FFE4F808D918D0196918F85
:1007D000808FCE010E94F201A3C02091640030916D
:1007E00065008217930769F587EC90E00E94490243
:1007F000892B49F01C9FF0011D9FF00D1124E45F2F
:10080000FE4F118E108E0E947A0085E890E00E94C3
:10081000C90060E070E088E090E00E941F0181EC78
:1008200090E00E94C90060E070E08EE090E00E94DD
:100830001F018BEB90E00E94C900CE010E94F201E3
:100840006FC020916200309163008217930791F589
:1008500088ED90E00E944902892B71F00E941403F8
:100860002FEF80E792E0215080409040E1F700C0F8
:10087000000081E090E05EC00E947A0085E890E090
:100880000E94C90060E070E088E090E00E941F01D3
:1008900081EC90E00E94C90060E070E08EE090E0A2
:1008A0000E941F018BEB90E00E94C900CE010E94C4
:1008B000F20136C0209160003091610082179307E9
:1008C00079F589EE90E00E944902892B61F02FEFC3
:1008D00080E792E0215080409040E1F700C00000A6
:1008E00080E090E027C00E947A0085E890E00E94B6
:1008F000C90060E070E088E090E00E941F0181EC98
:1009000090E00E94C90060E070E08EE090E00E94FC
:100910001F018BEB90E00E94C900CE010E94F20102
:100920002FEF80E792E0215080409040E1F700C037
:100930000000EECEDF91CF911F910895CF92DF920C
:10094000EF92FF920F931F93CF93DF93CDB7DEB754
:10095000C85CD1090FB6F894DEBF0FBECDBF0E94B0
:10096000A1010E94D6020E947A004091B0025091EB
:10097000B1021416150624F5ECE0F1E080E090E0F9
:1009800000E010E0208D318D121613068CF4D80192
:10099000AA0FBB1F21E030E02C0F3D1FA20FB31F99
:1009A00020813181215031092D933C930F5F1F4FDE
:1009B00001967C96841795072CF30115110509F50E
:1009C0008AEF90E00E94C90061E070E086E090E06C
:1009D0000E941F0182EB90E00E94C9000E94A801C2
:1009E000209162003091630082179307B9F73FEFBF
:1009F00080E792E0315080409040E1F700C0000075
:100A00009FC085E890E00E94C90060E070E088E047
:100A100090E00E941F0181EC90E00E94C90060E01C
:100A200070E08EE090E00E941F018BEB90E00E944E
:100A3000C90061E070E080E090E00E941F018981C0
:100A40009A812CE1289F7001299FF00C1124C70185
:100A5000825F9E4F0E94C90061E070E088E090E0F4
:100A60000E941F01F701E45FFE4F7F01868997898D
:100A70000E94DD0061E070E08EE090E00E941F01C6
:100A8000F701808D918D0E94DD00E12CF12C015049
:100A90001109C12CD12C0E94A80120916C00309129
:100AA0006D0082179307B1F4E114F10411F4780199
:100AB00003C0F1E0EF1AF108F701EE0FFF1F21E08C
:100AC00030E02C0F3D1FE20FF31F808191810E94C7
:100AD000F2012CC020916A0030916B0082179307BD
:100AE000B9F40E151F0521F03FEFE31AF30A02C017
:100AF000EC2CFD2CF701EE0FFF1F81E090E08C0F36
:100B00009D1FE80FF91F808191810E94F2010EC0A4
:100B100020916200309163008217930789F0209141
:100B20006000309161008217930751F09FEFE0E77A
:100B3000F2E09150E040F040E1F700C00000ABCFA0
:100B4000C853DF4F0FB6F894DEBF0FBECDBFDF91A5
:100B5000CF911F910F91FF90EF90DF90CF9008956C
:100B60001F93CF93DF930E94A1010E94D6020E949F
:100B70007A0085E890E00E94C90060E070E088E0BB
:100B800090E00E941F0181EC90E00E94C90060E0AB
:100B900070E08EE090E00E941F018BEB90E00E94DD
:100BA000C90061E070E080E090E00E941F018EE0EB
:100BB00091E00E94C90061E070E088E090E00E944E
:100BC0001F01CCE0D1E08E899F890E94DD0061E0A9
:100BD00070E08EE090E00E941F01888D998D0E9448
:100BE000DD00C0E0D0E01CE10E94A80120916C0073
:100BF00030916D008217930769F4209731F4C0910A
:100C0000B002D091B102219701C02197CE010E947C
:100C1000F20128C120916A0030916B00821793077E
:100C200081F48091B0029091B10201978C179D07D9
:100C300011F0219602C0C0E0D0E0CE010E94F20186
:100C400011C120916600309167008217930709F067
:100C500045C01C9FF0011D9FF00D1124E45FFE4F65
:100C6000828D938D892BD1F41C9FF0011D9FF00D77
:100C70001124E45FFE4F808D918D009709F4F2C03E
:100C80001C9FF0011D9FF00D1124E45FFE4F0197A2
:100C9000918F808FCE010E94F201E4C00E941F025A
:100CA0000E947A0085E890E00E94C90060E070E050
:100CB00088E090E00E941F0181EC90E00E94C90052
:100CC00060E070E08EE090E00E941F018BEB90E00E
:100CD0000E94C900CE010E94F201C4C020916800A8
:100CE000309169008217930781F41C9FF0011D9FCA
:100CF000F00D1124E45FFE4F808D918D0196918F50
:100D0000808FCE010E94F201ADC02091640030912D
:100D1000650082179307D9F51C9FF0011D9FF00D08
:100D20001124E45FFE4F828D938D892B81F487EC33
:100D300090E00E944902892B61F01C9FF0011D9FE9
:100D4000F00D1124E45FFE4F118E108E02C00E9440
:100D50001F020E947A0085E890E00E94C90060E0CE
:100D600070E088E090E00E941F0181EC90E00E941A
:100D7000C90060E070E08EE090E00E941F018BEB04
:100D800090E00E94C900CE010E94F2016BC0209148
:100D90006200309163008217930781F588ED90E03F
:100DA0000E944902892B61F00E9414032FEF80E713
:100DB00092E0215080409040E1F700C000005CC00C
:100DC0000E947A0085E890E00E94C90060E070E02F
:100DD00088E090E00E941F0181EC90E00E94C90031
:100DE00060E070E08EE090E00E941F018BEB90E0ED
:100DF0000E94C900CE010E94F20134C0209160001F
:100E0000309161008217930769F589EE90E00E94A6
:100E10004902892B51F02FEF80E792E0215080406A
:100E20009040E1F700C0000027C00E947A0085E8EA
:100E300090E00E94C90060E070E088E090E00E94CD
:100E40001F0181EC90E00E94C90060E070E08EE03C
:100E500090E00E941F018BEB90E00E94C900CE0140
:100E60000E94F2012FEF80E792E0215080409040F5
:100E7000E1F700C00000B8CEDF91CF911F91089537
:100E80000E947A001092B1021092B00280E090E0CD
:100E90000E94B40100E010E0C0E0D0E0E12CF12CB1
:100EA0000E94A801209731F520916C0030916D00CF
:100EB0008217930741F020916A0030916B008217EE
:100EC000930709F095C06E2D7F2D8E2D9F2D0E94CA
:100ED0001F018FEB90E00E94C90061E070E08E2D51
:100EE0009F2D0E941F018AE790E00E94C900C1E087
:100EF000D0E042C0C130D10509F064C020916C003F
:100F000030916D008217930741F020916A00309173
:100F10006B008217930709F043C061E070E08E2DEB
:100F20009F2D0E941F018FEB90E00E94C9006E2D43
:100F30007F2D8E2D9F2D0E941F018AE790E00E9439
:100F4000C900CE2DDF2D18C00E94440331E020E0FF
:100F5000019711F03E2D2F2D032F122F02C00E945A
:100F6000B005C8010E94B40107C00E949E04C801D8
:100F70000E94B401CE2DDF2D8FEF90E722E081504B
:100F800090402040E1F700C000008ACF8FEF90E74B
:100F900022E0815090402040E1F700C00000E5CF02
:100FA00020916200309163008217930729F7EECFFA
:100FB0008FEF90E722E0815090402040E1F700C0A1
:100FC0000000D3CF20916200309163008217930715
:100FD00099F6EECF8FEF90E722E0815090402040CD
:100FE000E1F700C000000115110509F4ADCFB7CF3E
:100FF00020916200309163008217930709F0BCCF03
:10100000E9CF789487E690E00E945B08B898B99899
:10101000BA980E9491000E9440071F920F920FB64B
:101020000F9211242F938F939F93EF93FF938BB184
:101030002CB18871E091B402EF5FEF719091B3022F
:10104000E91739F0E093B402F0E0E954FD4F208352
:1010500001C082E08093B202FF91EF919F918F9146
:101060002F910F900FBE0F901F9018951F920F9207
:101070000FB60F9211248F939F93EF93FF9390914C
:10108000B6028091B502981761F0E091B502EF5F6A
:10109000EF71E093B502F0E0E952FD4F80818CB929
:1010A00001C05598FF91EF919F918F910F900FBEC6
:1010B0000F901F9018951092B6021092B5021092E0
:1010C000B4021092B30299231CF422E02BB99F774B
:1010D00090BD89B988E98AB986E880BD0895909164
:1010E000B4028091B302981791F0E091B302EF5FE0
:1010F000EF71E093B302F0E0E954FD4F208180915D
:10110000B20290E0982F8827820F911D089580E009
:1011100091E008952091B6022F5F2F719091B50252
:101120002917E1F3E22FF0E0E952FD4F808320938D
:10113000B602559A08950F931F93CF93DF93CDB7BF
:10114000DEB72F970FB6F894DEBF0FBECDBF4AE0D3
:10115000BE016F5F7F4F0E9415098981882351F07E
:101160008E010E5F1F4F0E948A08F80181918F0146
:101170008111F9CF2F960FB6F894DEBF0FBECDBF09
:10118000DF91CF911F910F910895CF93DF93EC01E1
:101190008881882331F021960E948A0889918111E3
:1011A000FBCFDF91CF9108958091B4022091B302DB
:1011B00090E04F96821B91096FE170E00E94E60873
:1011C00008958091B3028093B402089597FB072E8F
:1011D00016F4009407D077FD09D00E94FA0807FCA6
:1011E00005D03EF4909581959F4F08957095619537
:1011F0007F4F0895AA1BBB1B51E107C0AA1FBB1F4D
:10120000A617B70710F0A61BB70B881F991F5A9592
:10121000A9F780959095BC01CD010895FB01DC01F3
:1012200001900D920020E1F70895BB274A3031F478
:10123000992322F4BDE2909581959F4F0C9421094A
:10124000BB27FB015527AA27880F991FAA1FA417A0
:1012500010F0A41B83955051B9F7A05DAA3308F094
:10126000A95DA193009779F7B111B1931192CB01C8
:101270000C943A09DC01FC01672F71917723E1F7A7
:10128000329704C07C916D9370836291AE17BF0753
:08129000C8F30895F894FFCFA4
:101298006F006E00650064000B000A000100506CCE
:1012A800656173652077616974003E0053656C65FC
:1012B8006374656420466F6F64004368616E676598
:1012C80020466F6F640053656C65637420466F6FCA
:1012D80064002043616E6E6F742043616E63656CB9
:1012E80020003E4F6B003E596573004E6F00322060
:1012F8000050726963650053657420746865206ED8
:101308006F20746F20303F005361766520746865E4
:10131800206368616E676573004469736361726412
:10132800204368616E6765733F004E6F20466F6F9C
:0C1338006473204F7264657265640000ED
:00000001FF
