S01700004763634170706C69636174696F6E312E737265635B
S11300000C942A000C9447000C9447000C9447006D
S11300100C9447000C9447000C9447000C94470040
S11300200C9447000C9447000C9447000C94470030
S11300300C9447000C94DA070C9403080C944700C2
S11300400C9447000C9447000C9447000C94470010
S11300500C94470011241FBECFE5D8E0DEBFCDBF0E
S113006011E0A0E6B0E0E2E3F2E102C005900D92F7
S1130070AC30B107D9F722E0ACE0B1E001C01D9289
S1130080A73FB207E1F70E94CE070C9417090C941E
S1130090000095ED9A95F1F70000882314F4DA9A9C
S11300A001C0DA9886FF02C0DB9A01C0DB9885FFA5
S11300B002C0DC9A01C0DC9884FF02C0DD9A01C052
S11300C0DD98DE9ADE9883FF02C0DA9A01C0DA98DE
S11300D082FF02C0DB9A01C0DB9881FF02C0DC9A78
S11300E001C0DC9880FF02C0DD9A01C0DD98DE9A71
S11300F0DE980895DF9881E00E9449008FE39FE134
S11301000197F1F700C000000895DF9880680E940D
S11301104900089590E4699F800D11240E94850090
S11301200895D79AD69AD29AD39AD49AD59ADF9820
S1130130DE988FE59AEE0197F1F700C00000DD9A92
S1130140DC9ADB98DA98DE9ADE988FE19EE40197D8
S1130150F1F700C00000DE9ADE988FE193E001978A
S1130160F1F700C00000DE9ADE988FE193E001977A
S1130170F1F700C00000DD98DC9ADB98DA98DE9A8B
S1130180DE9888E20E9449008CE00E9449000E94A7
S11301907A0086E00E9449000895CF93DF93EC0132
S11301A0DF9A8881882331F021960E944900899141
S11301B08111FBCFDF91CF910895DF9A0E9449000E
S11301C00895EF92FF920F931F93CF93DF93CDB7D0
S11301D0DEB7C456D1090FB6F894DEBF0FBECDBF4B
S11301E0BC01CE0101967C01FC0100E010E02AE094
S11301F030E001C08C01CB01B9010E94B30890E347
S1130200980F9193C80101966115710599F711230F
S113021064F00C0F1D1F0E5F1F4FF80182918F01B8
S11302200E94DD000E151F05C1F7CC59DF4F0FB634
S1130230F894DEBF0FBECDBFDF91CF911F910F9118
S1130240FF90EF90089592E0961B692F0E948A0018
S11302500895CF92DF92EF92FF920F931F93CF9363
S1130260DF93CDB7DEB7C456D1090FB6F894DEBF1D
S11302700FBECDBF6C01CE0101967C0100E010E001
S113028001C089010E94A108892BE1F30E943C0866
S1130290F70181937F0198012F5F3F4F803289F7E7
S11302A0E1E0F0E0EC0FFD1FE00FF11F1082BE0152
S11302B06F5F7F4FC6010E94DB08CC59DF4F0FB63A
S11302C0F894DEBF0FBECDBFDF91CF911F910F9188
S11302D0FF90EF90DF90CF9008950F931F93CF93EB
S11302E0DF9300D000D01F92CDB7DEB78E010F5F31
S11302F01F4FC8010E942901D8010D900020E9F781
S1130300F801AD014150510980E090E011C09C0119
S1130310220F331F880F991F880F991F880F991F69
S1130320820F931F219130E020533109820F931FD4
S1130330E417F50761F70F900F900F900F900F904F
S1130340DF91CF911F910F9108950E947A008EE65C
S113035090E00E94CD00089586B383FB222720F904
S113036030E0C901B4990A96B59B02C08C599F4FDD
S11303700895CF93DF93EC010E947A0062E080E05D
S11303800E948A008FEB90E00E94CD0062E080E042
S11303900E948A008AE790E00E94CD0061E082E03A
S11303A00E948A008CE790E00E94CD0062E082E027
S11303B00E948A00219729F48AE890E00E94CD00E7
S11303C004C086E990E00E94CD00DF91CF910895AA
S11303D0CF93C0E061E08C2F0E948A008FEB90E005
S11303E00E94CD00CF5FC031A9F7CF9108950F933C
S11303F01F93CF93DF938C010E94E80161E080E0BA
S11304000E948A008CE1809FE001819FD00D11241D
S1130410CE01825F9E4F0E94CD0061E088E00E9481
S11304208A00C45FDE4F8E899F890E94E10061E0EB
S11304308EE00E948A00888D998D0E94E100DF91F0
S1130440CF911F910F9108952FEF80E792E02150F3
S113045080409040E1F700C000000E947A0082EAE8
S113046090E00E94CD0061E086E00E948A0082EB69
S113047090E00E94CD000E94AC0120916200309176
S1130480630082179307B9F70895EF92FF920F93D1
S11304901F93CF93DF93EC010E947A00CE010E9458
S11304A0CD0061E082E00E948A0086EB90E00E9429
S11304B0CD0061E08CE00E948A008BEB90E00E940A
S11304C0CD002FEF8AE693E0215080409040E1F781
S11304D000C00000C1E0D0E001E010E0E12CF12C0C
S11304E00E94AC01C130D10509F52091660030911C
S11304F067008217930739F02091680030916900F2
S113050082179307B1F561E082E00E948A008FEBC5
S113051090E00E94CD0061E08BE00E948A008AE7AF
S113052090E00E94CD00CE2DDF2D2AC0209709F542
S113053020916600309167008217930739F020916B
S11305406800309169008217930799F461E08BE0A9
S11305500E948A008FEB90E00E94CD0061E082E06F
S11305600E948A008AE790E00E94CD00C02FD12F1C
S113057007C020916200309163008217930751F005
S11305808FEF9AE623E0815090402040E1F700C0CD
S11305900000A6CFCE01DF91CF911F910F91FF9064
S11305A0EF9008950F931F93CF93DF930E94AE08AB
S11305B081E30E9457080E94A108892BE1F30E945D
S11305C06D019093B1028093B002181619061CF5C0
S11305D0CEE0D1E000E010E00E946D01FE01329710
S11305E091838083CE010E9429010E946D019D8B1D
S11305F08C8B0E946D019F8B8E8B0E946D01998F55
S1130600888F0F5F1F4F6C968091B0029091B1025A
S1130610081719070CF3DF91CF911F910F910895DB
S11306200F931F93CF93DF938091B0029091B10207
S11306301816190604F5CCE0D1E000E010E08EEBCA
S113064090E00E949208888199810E94680880E263
S11306500E945708888D998D0E94680880E20E9444
S113066057080F5F1F4F6C968091B0029091B102B2
S11306700817190724F3DF91CF911F910F91089563
S11306801F93CF93DF930E94A5010E94D2022FEF04
S113069086E791E0215080409040E1F700C00000DF
S11306A00E947A0085E890E00E94CD0060E070E04E
S11306B088E090E00E94230181EC90E00E94CD004C
S11306C060E070E08EE090E00E9423018BEB90E00C
S11306D00E94CD0061E070E080E090E00E94230180
S11306E08EE091E00E94CD0061E070E088E090E04F
S11306F00E942301CCE0D1E08E899F890E94E10011
S113070061E070E08EE090E00E942301888D998D75
S11307100E94E100C0E0D0E01CE10E94AC01209105
S11307206C0030916D008217930769F4209731F4BF
S1130730C091B002D091B102219701C02197CE019E
S11307400E94F701DDC020916A0030916B0082178E
S1130750930781F48091B0029091B10201978C17B4
S11307609D0711F0219602C0C0E0D0E0CE010E94A6
S1130770F701C6C020916600309167008217930785
S1130780D1F41C9FF0011D9FF00D1124E45FFE4F76
S1130790808D918D009709F4B3C01C9FF0011D9FBB
S11307A0F00D1124E45FFE4F0197918F808FCE01ED
S11307B00E94F701A5C0209168003091690082175A
S11307C0930781F41C9FF0011D9FF00D1124E45F39
S11307D0FE4F808D918D0196918F808FCE010E9466
S11307E0F7018EC020916400309165008217930751
S11307F069F587EC90E00E944502892B49F01C9F23
S1130800F0011D9FF00D1124E45FFE4F118E108E38
S11308100E947A0085E890E00E94CD0060E070E0DC
S113082088E090E00E94230181EC90E00E94CD00DA
S113083060E070E08EE090E00E9423018BEB90E09A
S11308400E94CD00CE010E94F7015AC0209162009F
S1130850309163008217930749F588ED90E00E9478
S11308604502892B29F00E94100381E090E054C0D6
S11308700E947A0085E890E00E94CD0060E070E07C
S113088088E090E00E94230181EC90E00E94CD007A
S113089060E070E08EE090E00E9423018BEB90E03A
S11308A00E94CD00CE010E94F7012AC02091600071
S11308B0309161008217930719F589EE90E00E9448
S11308C04502892B39F50E947A0085E890E00E9460
S11308D0CD0060E070E088E090E00E94230181ECAC
S11308E090E00E94CD0060E070E08EE090E00E9415
S11308F023018BEB90E00E94CD00CE010E94F70112
S11309002FEF80E792E0215080409040E1F700C053
S1130910000003CF80E090E0DF91CF911F91089514
S1130920CF92DF92EF92FF920F931F93CF93DF93B7
S1130930CDB7DEB7C85CD1090FB6F894DEBF0FBEE1
S1130940CDBF0E94A5010E94D2022FEF36E781E0BD
S1130950215030408040E1F700C000000E947A003E
S11309604091B0025091B1021416150604F5E4E268
S1130970F1E080E090E000E010E020813181121687
S113098013066CF4D801AA0FBB1F21E030E02C0F32
S11309903D1FA20FB31F8D939C930F5F1F4F0196B2
S11309A07C96841795074CF301151105C1F48AEF61
S11309B090E00E94CD0061E070E086E090E00E944B
S11309C0230182EB90E00E94CD000E94AC012091B3
S11309D062003091630082179307B9F7A0C085E8DD
S11309E090E00E94CD0060E070E088E090E00E941A
S11309F0230181EC90E00E94CD0060E070E08EE085
S1130A0090E00E9423018BEB90E00E94CD0061E016
S1130A1070E080E090E00E94230189819A812CE1BA
S1130A20289F7001299FF00C1124C701825F9E4FFB
S1130A300E94CD0061E070E088E090E00E94230114
S1130A40C701845F9E4F7C01FC01868997890E94BF
S1130A50E10061E070E08EE090E00E942301F70184
S1130A60808D918D0E94E100E12CF12C015011093F
S1130A70C12CD12C0E94AC0120916C0030916D00EE
S1130A8082179307B1F4E114F10411F4780103C05F
S1130A90F1E0EF1AF108F701EE0FFF1F21E030E05B
S1130AA02C0F3D1FE20FF31F808191810E94F701FB
S1130AB02CC020916A0030916B0082179307B9F41F
S1130AC00E151F0521F03FEFE31AF30A02C0EC2CC8
S1130AD0FD2CF701EE0FFF1F81E090E08C0F9D1FAE
S1130AE0E80FF91F808191810E94F7010EC02091C7
S1130AF06200309163008217930789F020916000AF
S1130B00309161008217930751F09FEFE0E7F2E024
S1130B109150E040F040E1F700C00000ABCFC85373
S1130B20DF4F0FB6F894DEBF0FBECDBFDF91CF917C
S1130B301F910F91FF90EF90DF90CF9008951F9336
S1130B40CF93DF930E94A5010E94D2022FEF86E784
S1130B5091E0215080409040E1F700C000000E94E5
S1130B607A0085E890E00E94CD0060E070E088E0C3
S1130B7090E00E94230181EC90E00E94CD0060E0AF
S1130B8070E08EE090E00E9423018BEB90E00E94E5
S1130B90CD0061E070E080E090E00E9423018EE0EF
S1130BA091E00E94CD0061E070E088E090E00E9456
S1130BB02301CCE0D1E08E899F890E94E10061E0AD
S1130BC070E08EE090E00E942301888D998D0E9450
S1130BD0E100C0E0D0E01CE10E94AC0120916C0077
S1130BE030916D008217930769F4209731F4C09116
S1130BF0B002D091B102219701C02197CE010E9489
S1130C00F70115C120916A0030916B008217930798
S1130C1081F48091B0029091B10201978C179D07E5
S1130C2011F0219602C0C0E0D0E0CE010E94F7018D
S1130C30FEC020916600309167008217930709F087
S1130C4045C01C9FF0011D9FF00D1124E45FFE4F71
S1130C50828D938D892BD1F41C9FF0011D9FF00D83
S1130C601124E45FFE4F808D918D009709F4DFC05D
S1130C701C9FF0011D9FF00D1124E45FFE4F0197AE
S1130C80918F808FCE010E94F701D1C00E9424026F
S1130C900E947A0085E890E00E94CD0060E070E058
S1130CA088E090E00E94230181EC90E00E94CD0056
S1130CB060E070E08EE090E00E9423018BEB90E016
S1130CC00E94CD00CE010E94F701B1C020916800BE
S1130CD0309169008217930781F41C9FF0011D9FD6
S1130CE0F00D1124E45FFE4F808D918D0196918F5C
S1130CF0808FCE010E94F7019AC020916400309148
S1130D00650082179307D9F51C9FF0011D9FF00D14
S1130D101124E45FFE4F828D938D892B81F487EC3F
S1130D2090E00E944502892B61F01C9FF0011D9FF9
S1130D30F00D1124E45FFE4F118E108E02C00E944C
S1130D4024020E947A0085E890E00E94CD0060E0D1
S1130D5070E088E090E00E94230181EC90E00E9422
S1130D60CD0060E070E08EE090E00E9423018BEB08
S1130D7090E00E94CD00CE010E94F70158C020915E
S1130D806200309163008217930739F588ED90E093
S1130D900E944502892B19F00E94100352C00E9440
S1130DA07A0085E890E00E94CD0060E070E088E081
S1130DB090E00E94230181EC90E00E94CD0060E06D
S1130DC070E08EE090E00E9423018BEB90E00E94A3
S1130DD0CD00CE010E94F7012AC02091600030911D
S1130DE061008217930719F589EE90E00E9445028D
S1130DF0892B39F50E947A0085E890E00E94CD00A5
S1130E0060E070E088E090E00E94230181EC90E0D3
S1130E100E94CD0060E070E08EE090E00E9423012B
S1130E208BEB90E00E94CD00CE010E94F7012FEFE2
S1130E3080E792E0215080409040E1F700C000003C
S1130E40CBCEDF91CF911F9108952FEF8AE693E0E7
S1130E50215080409040E1F700C000000E947A00D9
S1130E601092B1021092B00280E090E00E94B901A9
S1130E70E12CF12CC0E0D0E000E010E00E94AC01D5
S1130E80209731F520916C0030916D008217930703
S1130E9041F020916A0030916B008217930709F0AA
S1130EA075C0602F712F802F912F0E9423018FEB2B
S1130EB090E00E94CD0061E070E0802F912F0E94AD
S1130EC023018AE790E00E94CD00C1E0D0E044C055
S1130ED0C130D10509F052C020916C0030916D00F1
S1130EE08217930739F020916A0030916B008217C2
S1130EF09307E1F561E070E0802F912F0E942301B8
S1130F008FEB90E00E94CD00602F712F802F912FE6
S1130F100E9423018AE790E00E94CD00C02FD12FC8
S1130F201BC0E114F10459F40E94400331E020E0B5
S1130F30019711F0302F212FE32EF22E02C00E94D0
S1130F409F05C7010E94B90107C00E949004C70110
S1130F500E94B901C02FD12F8FEF90E722E081507A
S1130F6090402040E1F700C0000088CF209162004B
S1130F70309163008217930779F7E7CF20916200DD
S1130F80309163008217930739F7DFCF2091620015
S1130F903091630082179307F9F6C3CF789487E6FC
S1130FA090E00E942808BB98BC98BD980E949100CC
S1130FB00E9425071F920F920FB60F9211242F93B0
S1130FC08F939F93EF93FF938BB12CB18871E09132
S1130FD0B402EF5FEF719091B302E91739F0E09337
S1130FE0B402F0E0E954FD4F208301C082E0809315
S1130FF0B202FF91EF919F918F912F910F900FBEAD
S11310000F901F9018951F920F920FB60F921124F4
S11310108F939F93EF93FF939091B6028091B502C3
S1131020981761F0E091B502EF5FEF71E093B502BC
S1131030F0E0E952FD4F80818CB901C05598FF91D1
S1131040EF919F918F910F900FBE0F901F90189565
S11310501092B6021092B5021092B4021092B3022A
S113106099231CF422E02BB99F7790BD89B988E9B4
S11310708AB986E880BD08959091B4028091B30244
S1131080981791F0E091B302EF5FEF71E093B30230
S1131090F0E0E954FD4F20818091B20290E0982F56
S11310A08827820F911D089580E091E00895209192
S11310B0B6022F5F2F719091B5022917E1F3E22F49
S11310C0F0E0E952FD4F80832093B602559A0895CB
S11310D00F931F93CF93DF93CDB7DEB72F970FB640
S11310E0F894DEBF0FBECDBF4AE0BE016F5F7F4FF5
S11310F00E94E2088981882351F08E010E5F1F4F00
S11311000E945708F80181918F018111F9CF2F9620
S11311100FB6F894DEBF0FBECDBFDF91CF911F9104
S11311200F910895CF93DF93EC018881882331F0E8
S113113021960E94570889918111FBCFDF91CF91AD
S113114008958091B4022091B30290E04F96821BDF
S113115091096FE170E00E94B30808958091B30291
S11311608093B402089597FB072E16F4009407D0D9
S113117077FD09D00E94C70807FC05D03EF490957E
S113118081959F4F0895709561957F4F0895AA1B8F
S1131190BB1B51E107C0AA1FBB1FA617B70710F05E
S11311A0A61BB70B881F991F5A95A9F78095909590
S11311B0BC01CD010895FB01DC0101900D920020DA
S11311C0E1F70895BB274A3031F4992322F4BDE2B4
S11311D0909581959F4F0C94EE08BB27FB015527F2
S11311E0AA27880F991FAA1FA41710F0A41B839580
S11311F05051B9F7A05DAA3308F0A95DA1930097F7
S113120079F7B111B1931192CB010C940709DC0168
S1131210FC01672F71917723E1F7329704C07C9129
S11312206D9370836291AE17BF07C8F30895F89465
S1051230FFCFEA
S11312326F006E00650064000B000A000100506C30
S1131242656173652077616974003E0053656C655E
S11312526374656420466F6F64004368616E6765FA
S113126220466F6F640053656C65637420466F6F2C
S113127264002043616E6E6F742043616E63656C1B
S113128220003E4F6B003E596573004E6F003220C2
S11312920050726963650053657420746865206E3A
S11312A26F20746F20303F00536176652074686547
S11312B2206368616E676573004469736361726475
S11312C2204368616E6765733F004E6F20466F6FFF
S10F12D26473204F726465726564000050
S9030000FC
