:100000000C942A000C9447000C9447000C94470071
:100010000C9447000C9447000C9447000C94470044
:100020000C9447000C9447000C9447000C94470034
:100030000C9447000C9449080C9472080C944700E7
:100040000C9447000C9447000C9447000C94470014
:100050000C94470011241FBECFE5D8E0DEBFCDBF12
:1000600011E0A0E6B0E0E6E0F3E102C005900D92F9
:10007000AE31B107D9F723E0AEE1B1E001C01D9286
:10008000A930B207E1F70E943D080C9481090C9455
:10009000000095ED9A95F1F70000882314F4DA9AA0
:1000A00001C0DA9886FF02C0DB9A01C0DB9885FFA9
:1000B00002C0DC9A01C0DC9884FF02C0DD9A01C056
:1000C000DD98DE9ADE9883FF02C0DA9A01C0DA98E2
:1000D00082FF02C0DB9A01C0DB9881FF02C0DC9A7C
:1000E00001C0DC9880FF02C0DD9A01C0DD98DE9A75
:1000F000DE980895DF9881E00E9449008FE39FE138
:100100000197F1F700C000000895DF9880680E9411
:100110004900089590E4699F800D11240E94850094
:100120000895D79AD69AD29AD39AD49AD59ADF9824
:10013000DE988FE59AEE0197F1F700C00000DD9A96
:10014000DC9ADB98DA98DE9ADE988FE19EE40197DC
:10015000F1F700C00000DE9ADE988FE193E001978E
:10016000F1F700C00000DE9ADE988FE193E001977E
:10017000F1F700C00000DD98DC9ADB98DA98DE9A8F
:10018000DE9888E20E9449008CE00E9449000E94AB
:100190007A0086E00E9449000895CF93DF93EC0136
:1001A000DF9A8881882331F021960E944900899145
:1001B0008111FBCFDF91CF910895DF9A0E94490012
:1001C0000895EF92FF920F931F93CF93DF93CDB7D4
:1001D000DEB7C456D1090FB6F894DEBF0FBECDBF4F
:1001E000BC01CE0101967C01FC0100E010E02AE098
:1001F00030E001C08C01CB01B9010E941D0990E3E0
:10020000980F9193C80101966115710599F7112313
:1002100064F00C0F1D1F0E5F1F4FF80182918F01BC
:100220000E94DD000E151F05C1F7CC59DF4F0FB638
:10023000F894DEBF0FBECDBFDF91CF911F910F911C
:10024000FF90EF90089592E0961B692F0E948A001C
:100250000895CF92DF92EF92FF920F931F93CF9367
:10026000DF93CDB7DEB7C456D1090FB6F894DEBF21
:100270000FBECDBF6C01CE0101967C0100E010E005
:1002800001C089010E941009892BE1F30E94AB088B
:10029000F70181937F0198012F5F3F4F803289F7EB
:1002A000E1E0F0E0EC0FFD1FE00FF11F1082BE0156
:1002B0006F5F7F4FC6010E944509CC59DF4F0FB6D3
:1002C000F894DEBF0FBECDBFDF91CF911F910F918C
:1002D000FF90EF90DF90CF9008950F931F93CF93EF
:1002E000DF9300D000D01F92CDB7DEB78E010F5F35
:1002F0001F4FC8010E942901D8010D900020E9F785
:10030000F801AD014150510980E090E011C09C011D
:10031000220F331F880F991F880F991F880F991F6D
:10032000820F931F219130E020533109820F931FD8
:10033000E417F50761F70F900F900F900F900F9053
:10034000DF91CF911F910F9108950E947A008EE660
:1003500090E00E94CD00089580B3282F217030E0F6
:10036000C90181990A96829B02C08C599F4F0895BA
:10037000CF93DF93EC010E947A0062E080E00E945C
:100380008A008FEB90E00E94CD0062E080E00E9446
:100390008A008AE790E00E94CD0061E082E00E943E
:1003A0008A008CE790E00E94CD0062E082E00E942B
:1003B0008A00219729F48AE890E00E94CD0004C0C9
:1003C00086E990E00E94CD00DF91CF910895CF9310
:1003D000C0E061E08C2F0E948A008FEB90E00E94C9
:1003E000CD00CF5FC031A9F7CF9108950F931F9330
:1003F000CF93DF938C010E94E70161E080E00E94CF
:100400008A008CE1809FE001819FD00D1124CE01F4
:10041000805E9E4F0E94CD0061E088E00E948A00CD
:10042000C25EDE4F8E899F890E94E10061E08EE00E
:100430000E948A00888D998D0E94E100DF91CF9102
:100440001F910F9108952FEF35EA4EE02150304073
:100450004040E1F700C000000E947A0082EA90E08C
:100460000E94CD0061E086E00E948A0082EB90E06D
:100470000E94CD000E94AC010097E1F32FEF36E718
:1004800041E0215030404040E1F700C000002091A1
:100490006200309163008217930751F08FEF95EA65
:1004A0002EE0815090402040E1F700C00000E2CFF4
:1004B0000895EF92FF920F931F93CF93DF93EC0178
:1004C0000E947A00CE010E94CD0061E082E00E948D
:1004D0008A0086EB90E00E94CD0061E08CE00E94F3
:1004E0008A008BEB90E00E94CD002FEF85EA9EE022
:1004F000215080409040E1F700C00000C1E0D0E012
:1005000001E010E0E12CF12C0E94AC01892BE1F319
:100510002FEF86E791E0215080409040E1F700C046
:1005200000000E94AC01C130D10509F520916600A0
:10053000309167008217930739F02091680030915D
:10054000690082179307B1F561E082E00E948A009A
:100550008FEB90E00E94CD0061E08BE00E948A006A
:100560008AE790E00E94CD00CE2DDF2D2AC0209793
:1005700009F520916600309167008217930739F0E2
:1005800020916800309169008217930799F461E027
:100590008BE00E948A008FEB90E00E94CD0061E02A
:1005A00082E00E948A008AE790E00E94CD00C02F7E
:1005B000D12F07C02091620030916300821793070A
:1005C00051F08FEF95EA2EE0815090402040E1F706
:1005D00000C0000099CFCE01DF91CF911F910F9104
:1005E000FF90EF9008950F931F93CF93DF9302C076
:1005F0000E94AB080E941009892BD1F78EEB90E086
:100600000E9401090E94AB088D33E1F70E946D0141
:100610009093C3028093C202181619061CF5C0E21B
:10062000D1E000E010E00E946D01FE01329791835D
:100630008083CE010E9429010E946D019D8B8C8BCD
:100640000E946D019F8B8E8B0E946D01998F888F08
:100650000F5F1F4F6C968091C2029091C3020817E2
:1006600019070CF3DF91CF911F910F9108950F930C
:100670001F93CF93DF938091C2029091C30218160B
:10068000190604F5CEE1D1E000E010E081EC90E045
:100690000E940109888199810E94D70880E20E9406
:1006A000C608888D998D0E94D70880E20E94C608EE
:1006B0000F5F1F4F6C968091C2029091C302081782
:1006C000190724F3DF91CF911F910F9108951F9384
:1006D000CF93DF930E94A5010E94F3022FEF85EADA
:1006E0009EE0215080409040E1F700C000000E9451
:1006F0007A0085E890E00E94CD0060E070E088E03C
:1007000090E00E9423018EEC90E00E94CD0060E01A
:1007100070E08EE090E00E9423018BEB90E00E945D
:10072000CD0061E070E080E090E00E94230180E273
:1007300091E00E94CD0061E070E088E090E00E94CE
:100740002301CEE1D1E08E899F890E94E10061E022
:1007500070E08EE090E00E942301888D998D0E94C8
:10076000E100C0E0D0E01CE10E94AC01892BE1F384
:100770002FEF86E791E0215080409040E1F700C0E4
:1007800000000E94AC0120916C0030916D00821736
:10079000930769F4209731F4C091C202D091C3024B
:1007A000219701C02197CE010E94F601DDC0209162
:1007B0006A0030916B008217930781F48091C20226
:1007C0009091C30201978C179D0711F0219602C0EA
:1007D000C0E0D0E0CE010E94F601C6C020916600C4
:1007E0003091670082179307D1F41C9FF0011D9F81
:1007F000F00D1124E25EFE4F808D918D009709F47B
:10080000B3C01C9FF0011D9FF00D1124E25EFE4F4E
:100810000197918F808FCE010E94F601A5C0209193
:100820006800309169008217930781F41C9FF001E2
:100830001D9FF00D1124E25EFE4F808D918D01967B
:10084000918F808FCE010E94F6018EC020916400AE
:10085000309165008217930769F584ED90E00E945E
:100860005902892B49F01C9FF0011D9FF00D1124A6
:10087000E25EFE4F118E108E0E947A0085E890E0B5
:100880000E94CD0060E070E088E090E00E942301CB
:100890008EEC90E00E94CD0060E070E08EE090E091
:1008A0000E9423018BEB90E00E94CD00CE010E94BC
:1008B000F6015AC0209162003091630082179307BD
:1008C00049F585EE90E00E945902892B29F00E949B
:1008D000370381E090E054C00E947A0085E890E000
:1008E0000E94CD0060E070E088E090E00E9423016B
:1008F0008EEC90E00E94CD0060E070E08EE090E031
:100900000E9423018BEB90E00E94CD00CE010E945B
:10091000F6012AC020916000309161008217930790
:1009200019F586EF90E00E945902892B39F50E9453
:100930007A0085E890E00E94CD0060E070E088E0F9
:1009400090E00E9423018EEC90E00E94CD0060E0D8
:1009500070E08EE090E00E9423018BEB90E00E941B
:10096000CD00CE010E94F6012FEF85EA9EE02150D6
:1009700080409040E1F700C00000F6CE80E090E0BB
:10098000DF91CF911F910895CF92DF92EF92FF9266
:100990000F931F93CF93DF93CDB7DEB7C85CD10918
:1009A0000FB6F894DEBF0FBECDBF0E94A5010E9416
:1009B000F3022FEF35EA8EE0215030408040E1F71E
:1009C00000C000000E947A004091C2025091C30210
:1009D0001416150604F5E6E3F1E080E090E000E08F
:1009E00010E020813181121613066CF4D801AA0F91
:1009F000BB1F21E030E02C0F3D1FA20FB31F8D93D2
:100A00009C930F5F1F4F01967C96841795074CF3BC
:100A10000115110579F587E091E00E94CD0061E0B4
:100A200070E086E090E00E94230182EB90E00E945B
:100A3000CD000E94AC01892BE1F33FEF86E791E006
:100A4000315080409040E1F700C000000E94AC01AE
:100A500020916200309163008217930709F4AEC0C1
:100A6000EFEFF5EA2EE0E150F0402040E1F700C062
:100A70000000DFCF85E890E00E94CD0060E070E0EC
:100A800088E090E00E9423018EEC90E00E94CD006F
:100A900060E070E08EE090E00E9423018BEB90E03C
:100AA0000E94CD0061E070E080E090E00E942301B0
:100AB00089819A812CE1289F7001299FF00C1124D3
:100AC000C701805E9E4F0E94CD0061E070E088E02B
:100AD00090E00E942301C701825E9E4F7C01FC01D1
:100AE000868997890E94E10061E070E08EE090E0E5
:100AF0000E942301F701808D918D0E94E100E12C7D
:100B0000F12C01501109C12CD12C0E94AC01892B70
:100B1000E1F30E94AC0120916C0030916D008217CE
:100B20009307B1F4E114F10411F4780103C0F1E08A
:100B3000EF1AF108F701EE0FFF1F21E030E02C0F54
:100B40003D1FE20FF31F808191810E94F6012CC0AE
:100B500020916A0030916B0082179307B9F4E01678
:100B6000F10621F03FEFE31AF30A02C0EC2CFD2C52
:100B7000F701EE0FFF1F81E090E08C0F9D1FE80F43
:100B8000F91F808191810E94F6010EC020916200C0
:100B9000309163008217930789F0209160003091B3
:100BA00061008217930751F09FEFE5EAFEE0915054
:100BB000E040F040E1F700C00000A7CFC853DF4F8E
:100BC0000FB6F894DEBF0FBECDBFDF91CF911F915E
:100BD0000F91FF90EF90DF90CF9008951F93CF93E8
:100BE000DF930E94A5010E94F3022FEF85EA9EE0A9
:100BF000215080409040E1F700C000000E947A0040
:100C000085E890E00E94CD0060E070E088E090E030
:100C10000E9423018EEC90E00E94CD0060E070E025
:100C20008EE090E00E9423018BEB90E00E94CD00CB
:100C300061E070E080E090E00E94230180E291E0BA
:100C40000E94CD0061E070E088E090E00E94230106
:100C5000CEE1D1E08E899F890E94E10061E070E0E1
:100C60008EE090E00E942301888D998D0E94E10022
:100C7000C0E0D0E01CE10E94AC01892BE1F32FEF32
:100C800086E791E0215080409040E1F700C00000ED
:100C90000E94AC0120916C0030916D008217930787
:100CA00069F4209731F4C091C202D091C302219718
:100CB00001C02197CE010E94F60115C120916A0062
:100CC00030916B008217930781F48091C20290915A
:100CD000C30201978C179D0711F0219602C0C0E056
:100CE000D0E0CE010E94F601FEC020916600309156
:100CF00067008217930709F045C01C9FF0011D9FF4
:100D0000F00D1124E25EFE4F828D938D892BD1F47C
:100D10001C9FF0011D9FF00D1124E25EFE4F808D9F
:100D2000918D009709F4DFC01C9FF0011D9FF00D0D
:100D30001124E25EFE4F0197918F808FCE010E94B9
:100D4000F601D1C00E9423020E947A0085E890E05B
:100D50000E94CD0060E070E088E090E00E942301F6
:100D60008EEC90E00E94CD0060E070E08EE090E0BC
:100D70000E9423018BEB90E00E94CD00CE010E94E7
:100D8000F601B1C020916800309169008217930785
:100D900081F41C9FF0011D9FF00D1124E25EFE4FB7
:100DA000808D918D0196918F808FCE010E94F601EA
:100DB0009AC0209164003091650082179307D9F59D
:100DC0001C9FF0011D9FF00D1124E25EFE4F828DED
:100DD000938D892B81F484ED90E00E945902892B38
:100DE00061F01C9FF0011D9FF00D1124E25EFE4F8B
:100DF000118E108E02C00E9423020E947A0085E8A4
:100E000090E00E94CD0060E070E088E090E00E94F9
:100E100023018EEC90E00E94CD0060E070E08EE057
:100E200090E00E9423018BEB90E00E94CD00CE0168
:100E30000E94F60158C02091620030916300821731
:100E4000930739F585EE90E00E945902892B19F03D
:100E50000E94370352C00E947A0085E890E00E9409
:100E6000CD0060E070E088E090E00E9423018EEC0D
:100E700090E00E94CD0060E070E08EE090E00E9483
:100E800023018BEB90E00E94CD00CE010E94F60181
:100E90002AC020916000309161008217930719F5F4
:100EA00086EF90E00E945902892B39F50E947A0062
:100EB00085E890E00E94CD0060E070E088E090E07E
:100EC0000E9423018EEC90E00E94CD0060E070E073
:100ED0008EE090E00E9423018BEB90E00E94CD0019
:100EE000CE010E94F6012FEF85EA9EE0215080405E
:100EF0009040E1F700C00000BECEDF91CF911F917E
:100F000008952FEF85EA9EE0215080409040E1F760
:100F100000C000000E947A001092C3021092C20228
:100F200080E090E00E94B801E12CF12CC0E0D0E01C
:100F300000E010E0CC24C394D12C0E94AC01892B9A
:100F4000E1F32FEF86E791E0215080409040E1F7F8
:100F500000C000000E94AC01209731F520916C0088
:100F600030916D008217930741F020916A00309113
:100F70006B008217930709F070C0602F712F802FCC
:100F8000912F0E9423018FEB90E00E94CD006C2DE9
:100F90007D2D802F912F0E9423018AE790E00E94EF
:100FA000CD00CC2DDD2D4FC0C130D10509F05DC085
:100FB00020916C0030916D008217930739F02091D9
:100FC0006A0030916B0082179307B9F46C2D7D2D68
:100FD000802F912F0E9423018FEB90E00E94CD0083
:100FE000602F712F802F912F0E9423018AE790E0BC
:100FF0000E94CD00C02FD12F26C0209162003091D9
:10100000630082179307F9F4CD2BB1F4E114F104D6
:1010100059F40E9467033C2D2D2D019711F0302FBC
:10102000212FE32EF22E02C00E94EE05C7010E947E
:10103000B801C02FD12F07C00E94C404C7010E946D
:10104000B801C02FD12F9FEF25EA8EE091502040AC
:101050008040E1F700C0000070CF20916200309125
:1010600063008217930779F7D1CF20916200309106
:1010700063008217930739F7DFCF789487E690E013
:101080000E949708889889988A980E9491000E94E7
:1010900081071F920F920FB60F9211242F938F93F7
:1010A0009F93EF93FF938BB12CB18871E091C602AF
:1010B000EF5FEF719091C502E91739F0E093C60236
:1010C000F0E0E753FD4F208301C082E08093C4022B
:1010D000FF91EF919F918F912F910F900FBE0F90E5
:1010E0001F9018951F920F920FB60F9211248F9395
:1010F0009F93EF93FF939091C8028091C702981736
:1011000061F0E091C702EF5FEF71E093C702F0E09A
:10111000E751FD4F80818CB901C05598FF91EF9147
:101120009F918F910F900FBE0F901F901895109266
:10113000C8021092C7021092C6021092C5029923EB
:101140001CF422E02BB99F7790BD89B988E98AB950
:1011500086E880BD08959091C6028091C5029817D7
:1011600091F0E091C502EF5FEF71E093C502F0E00E
:10117000E753FD4F20818091C40290E0982F88278B
:10118000820F911D089580E091E008952091C8029A
:101190002F5F2F719091C7022917E1F3E22FF0E042
:1011A000E751FD4F80832093C802559A08950F930D
:1011B0001F93CF93DF93CDB7DEB72F970FB6F89479
:1011C000DEBF0FBECDBF4AE0BE016F5F7F4F0E9402
:1011D0004C098981882351F08E010E5F1F4F0E94B8
:1011E000C608F80181918F018111F9CF2F960FB6B2
:1011F000F894DEBF0FBECDBFDF91CF911F910F914D
:101200000895CF93DF93EC018881882331F02196F4
:101210000E94C60889918111FBCFDF91CF9108957B
:101220008091C6022091C50290E04F96821B9109E1
:101230006FE170E00E941D09089597FB072E16F4D8
:10124000009407D077FD09D00E94310907FC05D032
:101250003EF4909581959F4F0895709561957F4FCD
:101260000895AA1BBB1B51E107C0AA1FBB1FA617ED
:10127000B70710F0A61BB70B881F991F5A95A9F73F
:1012800080959095BC01CD010895FB01DC01019092
:101290000D920020E1F70895BB274A3031F49923DD
:1012A00022F4BDE2909581959F4F0C945809BB277D
:1012B000FB015527AA27880F991FAA1FA41710F012
:1012C000A41B83955051B9F7A05DAA3308F0A95D1E
:1012D000A193009779F7B111B1931192CB010C94BE
:1012E0007109DC01FC01672F71917723E1F73297D7
:1012F00004C07C916D9370836291AE17BF07C8F3F1
:061300000895F894FFCFF0
:101306006F006E00650064000B000A000100506C5F
:10131600656173652077616974003E0053656C658D
:101326006374656420466F6F64004368616E676529
:1013360020466F6F640053656C65637420466F6F5B
:1013460064002043616E6E6F742043616E63656C4A
:1013560020003E4F6B003E596573004E6F005B20C8
:10136600005D20004D6F6D6F0043686F770050720F
:101376006963650053657420746865206E6F207418
:101386006F20303F0053617665207468652063687E
:10139600616E6765730044697363617264204368B4
:1013A600616E6765733F004E6F20466F6F647320F2
:0E13B6004F7264657265640068656C6C6F0050
:00000001FF
