S01700004763634170706C69636174696F6E312E737265635B
S11300000C942A000C9447000C9447000C9447006D
S11300100C9447000C9447000C9447000C94470040
S11300200C9447000C9447000C9447000C94470030
S11300300C9447000C9471010C949A010C944700A1
S11300400C9447000C9447000C9447000C94470010
S11300500C94470011241FBECFE5D8E0DEBFCDBF0E
S113006010E0A0E6B0E0EAE8F4E002C005900D92EA
S1130070A43CB107D9F722E0A4ECB0E001C01D9282
S1130080AD3AB207E1F70E9463010C9443020C9469
S1130090000095ED9A95F1F70000882314F4DA9A9C
S11300A001C0DA9886FF02C0DB9A01C0DB9885FFA5
S11300B002C0DC9A01C0DC9884FF02C0DD9A01C052
S11300C0DD98DE9ADE9883FF02C0DA9A01C0DA98DE
S11300D082FF02C0DB9A01C0DB9881FF02C0DC9A78
S11300E001C0DC9880FF02C0DD9A01C0DD98DE9A71
S11300F0DE980895DF9881E00E9449008FE39FE134
S11301000197F1F700C000000895D79AD69AD29AC1
S1130110D39AD49AD59ADF98DE988FE59AEE019710
S1130120F1F700C00000DD9ADC9ADB98DA98DE9AD9
S1130130DE988FE19EE40197F1F700C00000DE9A9B
S1130140DE988FE193E00197F1F700C00000DE9A9A
S1130150DE988FE193E00197F1F700C00000DD988D
S1130160DC9ADB98DA98DE9ADE9888E20E944900ED
S11301708CE00E9449000E947A0086E00E944900B7
S1130180089580B3282F217030E0C90181990A961F
S1130190829B02C08C599F4F0895CF93DF93CDB7B4
S11301A0DEB7C455D1090FB6F894DEBF0FBECDBF7C
S11301B081E090E09AAF89AF25E0E0E6F0E0DE016F
S11301C0DB9601900D922A95E1F724E630E06196E2
S11301D03FAF2EAF619763961FAE1EAE63976596D1
S11301E01FAE1EAE65972CE1FE01F996A4ECB0E0BB
S11301F001900D922A95E1F722E030E03E8F2D8F99
S113020025E0E5E6F0E0DE015F9601900D922A9587
S1130210E1F728EC30E03CAB2BAB1EAA1DAA98AF4B
S11302208FAB8CE1FE017D96A0EEB0E001900D92C3
S11302308A95E1F783E090E09A83898385E0EAE692
S1130240F0E0DE01139601900D928A95E1F78CE2BD
S113025091E0988F8F8B1A8E198E1C8E1B8E8CE1D9
S1130260FE013196ACEFB0E001900D928A95E1F772
S1130270CC5ADF4F0FB6F894DEBF0FBECDBFDF916F
S1130280CF91089500E010E00E94C100892BE1F3B2
S1130290C02FD12F82E090E00E94E40180E20E940E
S11302A0D301CE010E94E40180E20E94D301CE0179
S11302B00A960E94E40180E20E94D3012196C6308E
S11302C0D10541F7E1CF0E94CD00789487E690E014
S11302D00E94BF01889889988A980E9485000E948C
S11302E042011F920F920FB60F9211242F938F93F6
S11302F09F93EF93FF938BB12CB18871E0916A02C5
S1130300EF5FEF7190916902E91739F0E0936A02A7
S1130310F0E0E359FD4F208301C082E0809368023E
S1130320FF91EF919F918F912F910F900FBE0F909E
S11303301F9018951F920F920FB60F9211248F934E
S11303409F93EF93FF9390916C0280916B029817A7
S113035061F0E0916B02EF5FEF71E0936B02F0E00C
S1130360E357FD4F80818CB901C05598FF91EF91FF
S11303709F918F910F900FBE0F901F901895109220
S11303806C0210926B0210926A0210926902992315
S11303901CF422E02BB99F7790BD89B988E98AB90A
S11303A086E880BD089520916C022F5F2F71909193
S11303B06B022917E1F3E22FF0E0E357FD4F80834E
S11303C020936C02559A08950F931F93CF93DF9354
S11303D0CDB7DEB72F970FB6F894DEBF0FBECDBFF3
S11303E04AE0BE016F5F7F4F0E940E02898188231D
S11303F051F08E010E5F1F4F0E94D301F8018191CD
S11304008F018111F9CF2F960FB6F894DEBF0FBE7E
S1130410CDBFDF91CF911F910F910895BB274A3033
S113042031F4992322F4BDE2909581959F4F0C9469
S11304301A02BB27FB015527AA27880F991FAA1F59
S1130440A41710F0A41B83955051B9F7A05DAA33EB
S113045008F0A95DA193009779F7B111B1931192B6
S1130460CB010C943302DC01FC01672F71917723DB
S1130470E1F7329704C07C916D9370836291AE175B
S10D0480BF07C8F30895F894FFCFF6
S113048A4D6F6D6F0043686F7700466F6F6400505D
S113049A72696365004E6F00536574207468652041
S11304AA6E6F20746F20303F005361766520746844
S11304BA65206368616E676573004469736361727A
S11304CA64204368616E6765733F004E6F20466F10
S11304DA6F6473204F726465726564003E4F6B00EB
S10704EA20003E00AC
S9030000FC
