:100000000C942A000C9447000C9447000C94470071
:100010000C9447000C9447000C9447000C94470044
:100020000C9447000C9447000C9447000C94470034
:100030000C9447000C94D1080C94FA080C944700D7
:100040000C9447000C9447000C9447000C94470014
:100050000C94470011241FBECFE5D8E0DEBFCDBF12
:1000600011E0A0E6B0E0E0E2F4E102C005900D92FC
:10007000A631B107D9F724E0A6E1B1E001C01D9295
:10008000A53AB207E1F70E94C3080C940E0A0C943B
:10009000000095ED9A95F1F70000882314F4DA9AA0
:1000A00001C0DA9886FF02C0DB9A01C0DB9885FFA9
:1000B00002C0DC9A01C0DC9884FF02C0DD9A01C056
:1000C000DD98DE9ADE9883FF02C0DA9A01C0DA98E2
:1000D00082FF02C0DB9A01C0DB9881FF02C0DC9A7C
:1000E00001C0DC9880FF02C0DD9A01C0DD98DE9A75
:1000F000DE980895DF9881E00E9449008FE39FE138
:100100000197F1F700C000000895DF9880680E9411
:100110004900089590E4699F800D11240E94850094
:100120000895D79AD69AD29AD39AD49AD59ADF9824
:10013000DE988FE59AEE0197F1F700C00000DD9A96
:10014000DC9ADB98DA98DE9ADE988FE19EE40197DC
:10015000F1F700C00000DE9ADE988FE193E001978E
:10016000F1F700C00000DE9ADE988FE193E001977E
:10017000F1F700C00000DD98DC9ADB98DA98DE9A8F
:10018000DE9888E20E9449008CE00E9449000E94AB
:100190007A0086E00E9449000895CF93DF93EC0136
:1001A000DF9A8881882331F021960E944900899145
:1001B0008111FBCFDF91CF910895DF9A0E94490012
:1001C0000895EF92FF920F931F93CF93DF93CDB7D4
:1001D000DEB7C456D1090FB6F894DEBF0FBECDBF4F
:1001E000BC01CE0101967C01FC0100E010E02AE098
:1001F00030E001C08C01CB01B9010E94AA0990E353
:10020000980F9193C80101966115710599F7112313
:1002100064F00C0F1D1F0E5F1F4FF80182918F01BC
:100220000E94DD000E151F05C1F7CC59DF4F0FB638
:10023000F894DEBF0FBECDBFDF91CF911F910F911C
:10024000FF90EF90089592E0961B692F0E948A001C
:100250000895CF92DF92EF92FF920F931F93CF9367
:10026000DF93CDB7DEB7C456D1090FB6F894DEBF21
:100270000FBECDBF6C01CE0101967C0100E010E005
:1002800001C089010E949809892BE1F30E9433097A
:10029000F70181937F0198012F5F3F4F803289F7EB
:1002A000E1E0F0E0EC0FFD1FE00FF11F1082BE0156
:1002B0006F5F7F4FC6010E94D209CC59DF4F0FB646
:1002C000F894DEBF0FBECDBFDF91CF911F910F918C
:1002D000FF90EF90DF90CF9008950F931F93CF93EF
:1002E000DF9300D000D01F92CDB7DEB78E010F5F35
:1002F0001F4FC8010E942901D8010D900020E9F785
:10030000F801AD014150510980E090E011C09C011D
:10031000220F331F880F991F880F991F880F991F6D
:10032000820F931F219130E020533109820F931FD8
:10033000E417F50761F70F900F900F900F900F9053
:10034000DF91CF911F910F9108950E947A008EE660
:1003500090E00E94CD00089580B3282F217030E0F6
:10036000C90181990A96829B02C08C599F4F0895BA
:10037000CF93DF93EC010E947A0062E080E00E945C
:100380008A008FEB90E00E94CD0062E080E00E9446
:100390008A008AE790E00E94CD0061E082E00E943E
:1003A0008A008CE790E00E94CD0062E082E00E942B
:1003B0008A00219729F48AE890E00E94CD0004C0C9
:1003C00086E990E00E94CD00DF91CF910895CF9310
:1003D000C0E061E08C2F0E948A008FEB90E00E94C9
:1003E000CD00CF5FC031A9F7CF9108950F931F9330
:1003F000CF93DF938C010E94E70161E080E00E94CF
:100400008A008CE1809FE001819FD00D1124CE01F4
:10041000885E9E4F0E94CD0061E088E00E948A00C5
:10042000CA5EDE4F8E899F890E94E10061E08EE006
:100430000E948A00888D998D0E94E100DF91CF9102
:100440001F910F9108952FEF80E792E02150804097
:100450009040E1F700C000000E947A0082EA90E03C
:100460000E94CD0061E086E00E948A0082EB90E06D
:100470000E94CD000E94AC01209162003091630087
:1004800082179307B9F70895EF92FF920F931F9386
:10049000CF93DF93EC010E947A00CE010E94CD0041
:1004A00061E082E00E948A0086EB90E00E94CD002D
:1004B00061E08CE00E948A008BEB90E00E94CD000E
:1004C0002FEF85EA9EE0215080409040E1F700C088
:1004D0000000C1E0D0E001E010E0E12CF12C0E942E
:1004E000AC01C130D10509F520916600309167005B
:1004F0008217930739F020916800309169008217C4
:100500009307B1F561E082E00E948A008FEB90E0F2
:100510000E94CD0061E08BE00E948A008AE790E0B3
:100520000E94CD00CE2DDF2D2AC0209709F5209105
:100530006600309167008217930739F020916800B8
:10054000309169008217930799F461E08BE00E9473
:100550008A008FEB90E00E94CD0061E082E00E9473
:100560008A008AE790E00E94CD00C02FD12F07C0FB
:1005700020916200309163008217930751F08FEF52
:1005800095EA2EE0815090402040E1F700C0000045
:10059000A6CFCE01DF91CF911F910F91FF90EF90E9
:1005A00008950F931F93CF93DF930E94A50981E3D2
:1005B0000E944E090E949809892BE1F30E946D0167
:1005C00090935F0480935E04181619061CF5C8E129
:1005D000D1E000E010E00E946D01FE0132979183AE
:1005E0008083CE010E9429010E946D019D8B8C8B1E
:1005F0000E946D019F8B8E8B0E946D01998F888F59
:100600000F5F1F4F6C9680915E0490915F040817F6
:1006100019070CF3DF91CF911F910F9108950F935C
:100620001F93CF93DF9380915E0490915F0418161F
:10063000190604F5C6E1D1E000E010E08EEB90E091
:100640000E948909888199810E945F0980E20E9445
:100650004E09888D998D0E945F0980E20E944E09A3
:100660000F5F1F4F6C9680915E0490915F04081796
:10067000190724F3DF91CF911F910F910895CF9324
:10068000DF93CDB7DEB7C455D1090FB6F894DEBFFE
:100690000FBECDBF81E090E09AAF89AF85E0E1EC7D
:1006A000F0E0DE01DB9601900D928A95E1F784E699
:1006B00090E061969FAF8EAF619763961FAE1EAEBE
:1006C000639765961FAE1EAE65978CE1FE01F996A5
:1006D000AAEBB2E001900D928A95E1F782E090E0FA
:1006E0009E8F8D8F85E0E6ECF0E0DE015F96019055
:1006F0000D928A95E1F788EC90E09CAB8BAB1EAA3B
:100700001DAA18AE1FAA8CE1FE017D96A6EDB2E0EF
:1007100001900D928A95E1F783E090E09A838983B6
:1007200085E0E5E8F0E0DE01139601900D928A95F0
:10073000E1F78CE291E0988F8F8B1A8E198E1C8EC8
:100740001B8E8CE1FE013196A2EFB2E001900D927A
:100750008A95E1F7CC5ADF4F0FB6F894DEBF0FBE93
:10076000CDBFDF91CF9108958CE1EAEBF2E0A6E1F5
:10077000B1E001900D928A95E1F78CE1E6EDF2E0AF
:10078000A2E3B1E001900D928A95E1F78CE1E2EFEE
:10079000F2E0AEE4B1E001900D928A95E1F783E0DA
:1007A00090E090935F0480935E0408958CE1E6E10D
:1007B000F1E0AAEBB2E001900D928A95E1F78CE1AD
:1007C000E2E3F1E0A6EDB2E001900D928A95E1F747
:1007D0008CE1EEE4F1E0A2EFB2E001900D928A9597
:1007E000E1F708950F931F93CF93DF930E94A50124
:1007F0000E94B4032FEF85EA9EE021508040904094
:10080000E1F700C000000E947A0085E890E00E94B5
:10081000CD0060E070E088E090E00E9423018BEC66
:1008200090E00E94CD0060E070E08EE090E00E94D9
:1008300023018BEB90E00E94CD0061E070E080E04E
:1008400090E00E94230188E191E00E94CD0061E0E8
:1008500070E088E090E00E942301C6E1D1E08E893B
:100860009F890E94E10061E070E08EE090E00E94CC
:100870002301888D998D0E94E10000E010E0CCE119
:100880000E94AC01892BE1F32FEF86E791E0215024
:1008900080409040E1F700C000000E94AC01EAEB0C
:1008A000F2E0A6E1B1E08C2F01900D928A95E1F77C
:1008B000E6EDF2E0A2E3B1E08C2F01900D928A9573
:1008C000E1F7E2EFF2E0AEE4B1E08C2F01900D929F
:1008D0008A95E1F70E94AC0120916C0030916D0087
:1008E0008217930781F40115110539F400915E0414
:1008F00010915F040150110902C001501109C80193
:100900000E94F601DEC020916A0030916B008217D0
:10091000930789F480915E0490915F040197081712
:10092000190719F00F5F1F4F02C000E010E0C80167
:100930000E94F601C6C020916600309167008217C0
:100940009307D1F4C09FF001C19FF00D1124EA5E1E
:10095000FE4F808D918D009709F4B3C0C09FF001C8
:10096000C19FF00D1124EA5EFE4F0197918F808F99
:10097000C8010E94F601A5C020916800309169006D
:100980008217930781F4C09FF001C19FF00D1124DD
:10099000EA5EFE4F808D918D0196918F808FC80108
:1009A0000E94F6018EC0209164003091650082178C
:1009B000930769F581ED90E00E944402892B49F08C
:1009C000C09FF001C19FF00D1124EA5EFE4F118E11
:1009D000108E0E947A0085E890E00E94CD0060E0D1
:1009E00070E088E090E00E9423018BEC90E00E9490
:1009F000CD0060E070E08EE090E00E9423018BEB80
:100A000090E00E94CD00C8010E94F6015AC02091DA
:100A10006200309163008217930749F582EE90E0FF
:100A20000E944402892B29F00E94D60381E090E0C5
:100A300054C00E947A0085E890E00E94CD0060E0FA
:100A400070E088E090E00E9423018BEC90E00E942F
:100A5000CD0060E070E08EE090E00E9423018BEB1F
:100A600090E00E94CD00C8010E94F6012AC02091AA
:100A70006000309161008217930719F583EF90E0D1
:100A80000E944402892B39F50E947A0085E890E0A3
:100A90000E94CD0060E070E088E090E00E942301B9
:100AA0008BEC90E00E94CD0060E070E08EE090E082
:100AB0000E9423018BEB90E00E94CD00C8010E94B0
:100AC000F6012FEF85EA9EE0215080409040E1F74B
:100AD00000C00000D5CE80E090E0DF91CF911F9163
:100AE0000F910895CF92DF92EF92FF920F931F9391
:100AF000CF93DF93CDB7DEB7C85CD1090FB6F894BA
:100B0000DEBF0FBECDBF0E94A5010E94D1022FEF14
:100B100035EA8EE0215030408040E1F700C000000F
:100B20000E947A0040915E0450915F0414161506ED
:100B300004F5EEE2F1E080E090E000E010E02081DA
:100B40003181121613066CF4D801AA0FBB1F21E0E5
:100B500030E02C0F3D1FA20FB31F8D939C930F5FAE
:100B60001F4F01967C96841795074CF301151105CC
:100B7000C1F484E091E00E94CD0061E070E086E085
:100B800090E00E94230182EB90E00E94CD000E9441
:100B9000AC01209162003091630082179307B9F78E
:100BA000A0C085E890E00E94CD0060E070E088E0A1
:100BB00090E00E9423018BEC90E00E94CD0060E069
:100BC00070E08EE090E00E9423018BEB90E00E94A9
:100BD000CD0061E070E080E090E00E942301898117
:100BE0009A812CE1289F7001299FF00C1124C701E4
:100BF000885E9E4F0E94CD0061E070E088E090E04A
:100C00000E942301C7018A5E9E4F7C01FC018689F8
:100C100097890E94E10061E070E08EE090E00E9420
:100C20002301F701808D918D0E94E100E12CF12CD0
:100C300001501109C12CD12C0E94AC0120916C00F3
:100C400030916D0082179307B1F4E114F10411F4AF
:100C5000780103C0F1E0EF1AF108F701EE0FFF1F72
:100C600021E030E02C0F3D1FE20FF31F80819181C6
:100C70000E94F6012CC020916A0030916B0082170F
:100C80009307B9F40E151F0521F03FEFE31AF30A9D
:100C900002C0EC2CFD2CF701EE0FFF1F81E090E06D
:100CA0008C0F9D1FE80FF91F808191810E94F60132
:100CB0000EC020916200309163008217930789F083
:100CC00020916000309161008217930751F09FEFEF
:100CD000E5EAFEE09150E040F040E1F700C000009E
:100CE000ABCFC853DF4F0FB6F894DEBF0FBECDBFFA
:100CF000DF91CF911F910F91FF90EF90DF90CF90F8
:100D000008951F93CF93DF930E94A5010E94D10203
:100D10002FEF85EA9EE0215080409040E1F700C02F
:100D200000000E947A0085E890E00E94CD0060E01B
:100D300070E088E090E00E9423018BEC90E00E943C
:100D4000CD0060E070E08EE090E00E9423018BEB2C
:100D500090E00E94CD0061E070E080E090E00E94B1
:100D6000230188E191E00E94CD0061E070E088E01D
:100D700090E00E942301C6E1D1E08E899F890E9404
:100D8000E10061E070E08EE090E00E942301888D38
:100D9000998D0E94E100C0E0D0E01CE10E94AC010E
:100DA00020916C0030916D008217930769F42097B1
:100DB00031F4C0915E04D0915F04219701C0219766
:100DC000CE010E94F60115C120916A0030916B009E
:100DD0008217930781F480915E0490915F040197DC
:100DE0008C179D0711F0219602C0C0E0D0E0CE0123
:100DF0000E94F601FEC020916600309167008217C4
:100E0000930709F045C01C9FF0011D9FF00D1124B0
:100E1000EA5EFE4F828D938D892BD1F41C9FF001E9
:100E20001D9FF00D1124EA5EFE4F808D918D00977D
:100E300009F4DFC01C9FF0011D9FF00D1124EA5E34
:100E4000FE4F0197918F808FCE010E94F601D1C095
:100E50000E9423020E947A0085E890E00E94CD0063
:100E600060E070E088E090E00E9423018BEC90E06D
:100E70000E94CD0060E070E08EE090E00E942301CF
:100E80008BEB90E00E94CD00CE010E94F601B1C034
:100E900020916800309169008217930781F41C9FAC
:100EA000F0011D9FF00D1124EA5EFE4F808D918DA3
:100EB0000196918F808FCE010E94F6019AC02091F9
:100EC00064003091650082179307D9F51C9FF001EB
:100ED0001D9FF00D1124EA5EFE4F828D938D892BAC
:100EE00081F481ED90E00E944402892B61F01C9F07
:100EF000F0011D9FF00D1124EA5EFE4F118E108E41
:100F000002C00E9423020E947A0085E890E00E94BD
:100F1000CD0060E070E088E090E00E9423018BEC5F
:100F200090E00E94CD0060E070E08EE090E00E94D2
:100F300023018BEB90E00E94CD00CE010E94F601D0
:100F400058C020916200309163008217930739F5F1
:100F500082EE90E00E944402892B19F00E940F0358
:100F600052C00E947A0085E890E00E94CD0060E0C7
:100F700070E088E090E00E9423018BEC90E00E94FA
:100F8000CD0060E070E08EE090E00E9423018BEBEA
:100F900090E00E94CD00CE010E94F6012AC020916F
:100FA0006000309161008217930719F583EF90E09C
:100FB0000E944402892B39F50E947A0085E890E06E
:100FC0000E94CD0060E070E088E090E00E94230184
:100FD0008BEC90E00E94CD0060E070E08EE090E04D
:100FE0000E9423018BEB90E00E94CD00CE010E9475
:100FF000F6012FEF85EA9EE0215080409040E1F716
:1010000000C00000CBCEDF91CF911F9108952FEF4C
:1010100085EA9EE0215080409040E1F700C000004A
:101020000E947A0010925F0410925E0480E090E0CB
:101030000E94B801E12CF12CC0E0D0E000E010E00B
:10104000CC24C394D12C0E94AC01892BE1F32FEF67
:1010500086E791E0215080409040E1F700C0000019
:101060000E94AC01209731F520916C0030916D0009
:101070008217930741F020916A0030916B0082172C
:10108000930709F070C0602F712F802F912F0E945D
:1010900023018FEB90E00E94CD006C2D7D2D802FE1
:1010A000912F0E9423018AE790E00E94CD00CC2D71
:1010B000DD2D4FC0C130D10509F05DC020916C001D
:1010C00030916D008217930739F020916A003091BA
:1010D0006B0082179307B9F46C2D7D2D802F912F13
:1010E0000E9423018FEB90E00E94CD00602F712FB2
:1010F000802F912F0E9423018AE790E00E94CD006B
:10110000C02FD12F26C0209162003091630082173A
:101110009307F9F4CD2BB1F4E114F10459F40E94D2
:10112000F2033C2D2D2D019711F0302F212FE32EAE
:10113000F22E02C00E948106C7010E94B801C02F92
:10114000D12F07C00E947205C7010E94B801C02FAD
:10115000D12F9FEF25EA8EE0915020408040E1F7AB
:1011600000C0000070CF20916200309163008217B0
:10117000930779F7D1CF20916200309163008217F5
:10118000930739F7DFCF0E943F03789487E690E01A
:101190000E941F09889889988A980E9491000E944D
:1011A00007081F920F920FB60F9211242F938F935F
:1011B0009F93EF93FF938BB12CB18871E091620400
:1011C000EF5FEF7190916104E91739F0E0936204E9
:1011D000F0E0EB59FB4F208301C082E08093600474
:1011E000FF91EF919F918F912F910F900FBE0F90D4
:1011F0001F9018951F920F920FB60F9211248F9384
:101200009F93EF93FF9390916404809163049817E8
:1012100061F0E0916304EF5FEF71E0936304F0E04D
:10122000EB57FB4F80818CB901C05598FF91EF912E
:101230009F918F910F900FBE0F901F901895109255
:101240006404109263041092620410926104992362
:101250001CF422E02BB99F7790BD89B988E98AB93F
:1012600086E880BD0895909162048091610498178A
:1012700091F0E0916104EF5FEF71E0936104F0E0C1
:10128000EB59FB4F20818091600490E0982F8827D4
:10129000820F911D089580E091E0089520916404EB
:1012A0002F5F2F71909163042917E1F3E22FF0E093
:1012B000EB57FB4F808320936404559A08950F9356
:1012C0001F93CF93DF93CDB7DEB72F970FB6F89468
:1012D000DEBF0FBECDBF4AE0BE016F5F7F4F0E94F1
:1012E000D9098981882351F08E010E5F1F4F0E941A
:1012F0004E09F80181918F018111F9CF2F960FB618
:10130000F894DEBF0FBECDBFDF91CF911F910F913B
:101310000895CF93DF93EC018881882331F02196E3
:101320000E944E0989918111FBCFDF91CF910895E1
:10133000809162042091610490E04F96821B910994
:101340006FE170E00E94AA09089580916104809382
:101350006204089597FB072E16F4009407D077FDDA
:1013600009D00E94BE0907FC05D03EF490958195F6
:101370009F4F0895709561957F4F0895AA1BBB1BE1
:1013800051E107C0AA1FBB1FA617B70710F0A61B85
:10139000B70B881F991F5A95A9F780959095BC01A6
:1013A000CD010895FB01DC0101900D920020E1F7D1
:1013B0000895BB274A3031F4992322F4BDE2909579
:1013C00081959F4F0C94E509BB27FB015527AA2760
:1013D000880F991FAA1FA41710F0A41B83955051C2
:1013E000B9F7A05DAA3308F0A95DA193009779F73A
:1013F000B111B1931192CB010C94FE09DC01FC01F7
:10140000672F71917723E1F7329704C07C916D9338
:1014100070836291AE17BF07C8F30895F894FFCFA9
:101420006F006E00650064000B000A000100506C44
:10143000656173652077616974003E0053656C6572
:101440006374656420466F6F64004368616E67650E
:1014500020466F6F640053656C65637420466F6F40
:1014600064002043616E6E6F742043616E63656C2F
:1014700020003E4F6B003E596573004E6F003220D6
:10148000004D6F6D6F0043686F7700507269636540
:101490000053657420746865206E6F20746F20306F
:1014A0003F005361766520746865206368616E67EC
:1014B00065730044697363617264204368616E6799
:1014C00065733F004E6F20466F6F6473204F7264E8
:0614D00065726564000076
:00000001FF
