:100000000C942A000C9447000C9447000C94470071
:100010000C9447000C9447000C9447000C94470044
:100020000C9447000C9447000C9447000C94470034
:100030000C9447000C940E080C9437080C9447005D
:100040000C9447000C9447000C9447000C94470014
:100050000C94470011241FBECFE5D8E0DEBFCDBF12
:1000600011E0A0E6B0E0E4E3F1E102C005900D92FA
:10007000A631B107D9F724E0A6E1B1E001C01D9295
:10008000A53AB207E1F70E9400080C9498080C9476
:10009000000095ED9A95F1F70000882314F4DA9AA0
:1000A00001C0DA9886FF02C0DB9A01C0DB9885FFA9
:1000B00002C0DC9A01C0DC9884FF02C0DD9A01C056
:1000C000DD98DE9ADE9883FF02C0DA9A01C0DA98E2
:1000D00082FF02C0DB9A01C0DB9881FF02C0DC9A7C
:1000E00001C0DC9880FF02C0DD9A01C0DD98DE9A75
:1000F000DE980895DF9881E00E9449008FE39FE138
:100100000197F1F700C000000895DF9880680E9411
:100110004900089590E4699F800D11240E94850094
:100120000895D79AD69AD29AD39AD49AD59ADF9824
:10013000DE988FE59AEE0197F1F700C00000DD9A96
:10014000DC9ADB98DA98DE9ADE988FE19EE40197DC
:10015000F1F700C00000DE9ADE988FE193E001978E
:10016000F1F700C00000DE9ADE988FE193E001977E
:10017000F1F700C00000DD98DC9ADB98DA98DE9A8F
:10018000DE9888E20E9449008CE00E9449000E94AB
:100190007A0086E00E9449000895CF93DF93EC0136
:1001A000DF9A8881882331F021960E944900899145
:1001B0008111FBCFDF91CF910895DF9A0E94490012
:1001C0000895EF92FF920F931F93CF93DF93CDB7D4
:1001D000DEB7C456D1090FB6F894DEBF0FBECDBF4F
:1001E000BC01CE0101967C01FC0100E010E02AE098
:1001F00030E001C08C01CB01B9010E94700890E38E
:10020000980F9193C80101966115710599F7112313
:1002100064F00C0F1D1F0E5F1F4FF80182918F01BC
:100220000E94DD000E151F05C1F7CC59DF4F0FB638
:10023000F894DEBF0FBECDBFDF91CF911F910F911C
:10024000FF90EF90089592E0961B692F0E948A001C
:1002500008950E947A008EE690E00E94CD000895F5
:1002600080B3282F217030E0C90181990A96829BC2
:1002700002C08C599F4F0895CF93DF93EC010E94E9
:100280007A0062E080E00E948A008FEB90E00E949A
:10029000CD0062E080E00E948A008AE790E00E9440
:1002A000CD0061E082E00E948A008CE790E00E942D
:1002B000CD0062E082E00E948A00219729F48AE85A
:1002C00090E00E94CD0004C086E990E00E94CD003D
:1002D000DF91CF910895CF93C0E061E08C2F0E9411
:1002E0008A008FEB90E00E94CD00CF5FC031A9F76C
:1002F000CF9108950F931F93CF93DF938C010E94AA
:100300006B0161E080E00E948A008CE1809FE00147
:10031000819FD00D1124CE01885E9E4F0E94CD009A
:1003200061E088E00E948A00CA5EDE4F8E899F8964
:100330000E94E10061E08EE00E948A00888D998D24
:100340000E94E100DF91CF911F910F9108952FEF4F
:1003500035EA4EE0215030404040E1F700C0000057
:100360000E947A0082EA90E00E94CD0061E086E07F
:100370000E948A0082EB90E00E94CD000E94300132
:100380000097E1F32FEF36E741E021503040404045
:10039000E1F700C0000020916200309163008217F5
:1003A000930751F08FEF95EA2EE081509040204066
:1003B000E1F700C00000E2CF0895EF92FF920F93A3
:1003C0001F93CF93DF93EC010E947A00CE010E942D
:1003D000CD0061E082E00E948A0086EB90E00E94FE
:1003E000CD0061E08CE00E948A008BEB90E00E94DF
:1003F000CD002FEF85EA9EE0215080409040E1F74C
:1004000000C00000C1E0D0E001E010E0E12CF12CE0
:100410000E943001892BE1F32FEF86E791E0215014
:1004200080409040E1F700C000000E943001C130E0
:10043000D10509F520916600309167008217930776
:1004400039F0209168003091690082179307B1F567
:1004500061E082E00E948A008FEB90E00E94CD0074
:1004600061E08BE00E948A008AE790E00E94CD0064
:10047000CE2DDF2D2AC0209709F5209166003091FE
:1004800067008217930739F0209168003091690066
:100490008217930799F461E08BE00E948A008FEB4A
:1004A00090E00E94CD0061E082E00E948A008AE72D
:1004B00090E00E94CD00C02FD12F07C02091620094
:1004C000309163008217930751F08FEF95EA2EE089
:1004D000815090402040E1F700C0000099CFCE014C
:1004E000DF91CF911F910F91FF90EF900895CF93DF
:1004F000DF93CDB7DEB7C455D1090FB6F894DEBF90
:100500000FBECDBF81E090E09AAF89AF25E0E1EC6E
:10051000F0E0DE01DB9601900D922A95E1F724E6EA
:1005200030E061963FAF2EAF619763961FAE1EAE6F
:10053000639765961FAE1EAE65972CE1FE01F99696
:10054000AAEBB2E001900D922A95E1F722E030E0AB
:100550003E8F2D8F25E0E6ECF0E0DE015F96019006
:100560000D922A95E1F728EC30E03CAB2BAB1EAAAC
:100570001DAA98AF8FAB8CE1FE017D96A6EDB2E08F
:1005800001900D928A95E1F783E090E09A83898348
:1005900085E0E5E8F0E0DE01139601900D928A9582
:1005A000E1F78CE291E0988F8F8B1A8E198E1C8E5A
:1005B0001B8E8CE1FE013196A2EFB2E001900D920C
:1005C0008A95E1F7CC5ADF4F0FB6F894DEBF0FBE25
:1005D000CDBFDF91CF9108958CE1EAEBF2E0A6E187
:1005E000B1E001900D928A95E1F78CE1E6EDF2E041
:1005F000A2E3B1E001900D928A95E1F78CE1E2EF80
:10060000F2E0AEE4B1E001900D928A95E1F783E06B
:1006100090E090935F0480935E0408958CE1E6E19E
:10062000F1E0AAEBB2E001900D928A95E1F78CE13E
:10063000E2E3F1E0A6EDB2E001900D928A95E1F7D8
:100640008CE1EEE4F1E0A2EFB2E001900D928A9528
:10065000E1F708951F93CF93DF930E9429010E9431
:10066000EC022FEF85EA9EE0215080409040E1F7B8
:1006700000C000000E947A0085E890E00E94CD0052
:1006800060E070E088E090E00E9423018BEC90E055
:100690000E94CD0060E070E08EE090E00E942301B7
:1006A0008BEB90E00E94CD0061E070E080E090E094
:1006B0000E94230188E191E00E94CD0061E070E09A
:1006C00088E090E00E942301C6E1D1E08E899F89F5
:1006D0000E94E10061E070E08EE090E00E94230162
:1006E000888D998D0E94E100C0E0D0E01CE10E945D
:1006F0003001892BE1F32FEF86E791E02150804014
:100700009040E1F700C000000E94300120916C0091
:1007100030916D008217930769F4209731F4C091EE
:100720005E04D0915F04219701C02197CE010E9401
:100730007A01DDC020916A0030916B008217930727
:1007400081F480915E0490915F0401978C179D075E
:1007500011F0219602C0C0E0D0E0CE010E947A01E3
:10076000C6C0209166003091670082179307D1F4CC
:100770001C9FF0011D9FF00D1124EA5EFE4F808D3D
:10078000918D009709F4B3C01C9FF0011D9FF00DDF
:100790001124EA5EFE4F0197918F808FCE010E9457
:1007A0007A01A5C0209168003091690082179307F3
:1007B00081F41C9FF0011D9FF00D1124EA5EFE4F95
:1007C000808D918D0196918F808FCE010E947A014C
:1007D0008EC020916400309165008217930769F5FF
:1007E00081ED90E00E94DD01892B49F01C9FF00112
:1007F0001D9FF00D1124EA5EFE4F118E108E0E9497
:100800007A0085E890E00E94CD0060E070E088E02A
:1008100090E00E9423018BEC90E00E94CD0060E00C
:1008200070E08EE090E00E9423018BEB90E00E944C
:10083000CD00CE010E947A015AC020916200309111
:1008400063008217930749F582EE90E00E94DD0174
:10085000892B29F00E940E0381E090E054C00E9491
:100860007A0085E890E00E94CD0060E070E088E0CA
:1008700090E00E9423018BEC90E00E94CD0060E0AC
:1008800070E08EE090E00E9423018BEB90E00E94EC
:10089000CD00CE010E947A012AC0209160003091E3
:1008A00061008217930719F583EF90E00E94DD0144
:1008B000892B39F50E947A0085E890E00E94CD00EE
:1008C00060E070E088E090E00E9423018BEC90E013
:1008D0000E94CD0060E070E08EE090E00E94230175
:1008E0008BEB90E00E94CD00CE010E947A012FEFA9
:1008F00085EA9EE0215080409040E1F700C0000072
:10090000F6CE80E090E0DF91CF911F910895CF92D5
:10091000DF92EF92FF920F931F93CF93DF93CDB7A8
:10092000DEB7C85CD1090FB6F894DEBF0FBECDBFED
:100930000E9429010E94EC022FEF35EA8EE021503F
:1009400030408040E1F700C000000E947A004091F2
:100950005E0450915F041416150604F5EEE2F1E012
:1009600080E090E000E010E0208131811216130653
:100970006CF4D801AA0FBB1F21E030E02C0F3D1F03
:10098000A20FB31F8D939C930F5F1F4F01967C9610
:10099000841795074CF30115110579F584E091E072
:1009A0000E94CD0061E070E086E090E00E942301AB
:1009B00082EB90E00E94CD000E943001892BE1F390
:1009C0003FEF86E791E0315080409040E1F700C072
:1009D00000000E9430012091620030916300821774
:1009E000930709F4AEC0EFEFF5EA2EE0E150F040D6
:1009F0002040E1F700C00000DFCF85E890E00E94D2
:100A0000CD0060E070E088E090E00E9423018BEC74
:100A100090E00E94CD0060E070E08EE090E00E94E7
:100A200023018BEB90E00E94CD0061E070E080E05C
:100A300090E00E94230189819A812CE1289F700116
:100A4000299FF00C1124C701885E9E4F0E94CD00A3
:100A500061E070E088E090E00E942301C7018A5EB7
:100A60009E4F7C01FC01868997890E94E10061E02C
:100A700070E08EE090E00E942301F701808D918D5F
:100A80000E94E100E12CF12C01501109C12CD12C64
:100A90000E943001892BE1F30E94300120916C000B
:100AA00030916D0082179307B1F4E114F10411F451
:100AB000780103C0F1E0EF1AF108F701EE0FFF1F14
:100AC00021E030E02C0F3D1FE20FF31F8081918168
:100AD0000E947A012CC020916A0030916B0082172D
:100AE0009307B9F4E016F10621F03FEFE31AF30A99
:100AF00002C0EC2CFD2CF701EE0FFF1F81E090E00F
:100B00008C0F9D1FE80FF91F808191810E947A014F
:100B10000EC020916200309163008217930789F024
:100B200020916000309161008217930751F09FEF90
:100B3000E5EAFEE09150E040F040E1F700C000003F
:100B4000A7CFC853DF4F0FB6F894DEBF0FBECDBF9F
:100B5000DF91CF911F910F91FF90EF90DF90CF9099
:100B600008951F93CF93DF930E9429010E94EC0206
:100B70002FEF85EA9EE0215080409040E1F700C0D1
:100B800000000E947A0085E890E00E94CD0060E0BD
:100B900070E088E090E00E9423018BEC90E00E94DE
:100BA000CD0060E070E08EE090E00E9423018BEBCE
:100BB00090E00E94CD0061E070E080E090E00E9453
:100BC000230188E191E00E94CD0061E070E088E0BF
:100BD00090E00E942301C6E1D1E08E899F890E94A6
:100BE000E10061E070E08EE090E00E942301888DDA
:100BF000998D0E94E100C0E0D0E01CE10E9430012C
:100C0000892BE1F32FEF86E791E02150804090405F
:100C1000E1F700C000000E94300120916C0030918B
:100C20006D008217930769F4209731F4C0915E0438
:100C3000D0915F04219701C02197CE010E947A01D3
:100C400015C120916A0030916B008217930781F4DF
:100C500080915E0490915F0401978C179D0711F0BD
:100C6000219602C0C0E0D0E0CE010E947A01FEC011
:100C700020916600309167008217930709F045C004
:100C80001C9FF0011D9FF00D1124EA5EFE4F828D26
:100C9000938D892BD1F41C9FF0011D9FF00D112421
:100CA000EA5EFE4F808D918D009709F4DFC01C9F96
:100CB000F0011D9FF00D1124EA5EFE4F0197918F08
:100CC000808FCE010E947A01D1C00E94A7010E94AC
:100CD0007A0085E890E00E94CD0060E070E088E056
:100CE00090E00E9423018BEC90E00E94CD0060E038
:100CF00070E08EE090E00E9423018BEB90E00E9478
:100D0000CD00CE010E947A01B1C0209168003091DF
:100D100069008217930781F41C9FF0011D9FF00D5D
:100D20001124EA5EFE4F808D918D0196918F808F08
:100D3000CE010E947A019AC0209164003091650032
:100D400082179307D9F51C9FF0011D9FF00D112408
:100D5000EA5EFE4F828D938D892B81F481ED90E0C8
:100D60000E94DD01892B61F01C9FF0011D9FF00D99
:100D70001124EA5EFE4F118E108E02C00E94A70160
:100D80000E947A0085E890E00E94CD0060E070E06B
:100D900088E090E00E9423018BEC90E00E94CD005F
:100DA00060E070E08EE090E00E9423018BEB90E029
:100DB0000E94CD00CE010E947A0158C020916200AD
:100DC000309163008217930739F582EE90E00E941C
:100DD000DD01892B19F00E940E0352C00E947A0097
:100DE00085E890E00E94CD0060E070E088E090E04F
:100DF0000E9423018BEC90E00E94CD0060E070E047
:100E00008EE090E00E9423018BEB90E00E94CD00E9
:100E1000CE010E947A012AC02091600030916100C9
:100E20008217930719F583EF90E00E94DD01892B6B
:100E300039F50E947A0085E890E00E94CD0060E0DC
:100E400070E088E090E00E9423018BEC90E00E942B
:100E5000CD0060E070E08EE090E00E9423018BEB1B
:100E600090E00E94CD00CE010E947A012FEF85EA2A
:100E70009EE0215080409040E1F700C00000BECECF
:100E8000DF91CF911F9108952FEF85EA9EE02150C9
:100E900080409040E1F700C000000E947A0010926C
:100EA0005F0410925E0480E090E00E943C01E12C1F
:100EB000F12CC0E0D0E000E010E0CC24C394D12CB1
:100EC0000E943001892BE1F32FEF86E791E021505A
:100ED00080409040E1F700C000000E943001209760
:100EE00031F520916C0030916D008217930741F02D
:100EF00020916A0030916B008217930709F070C04F
:100F0000602F712F802F912F0E9423018FEB90E093
:100F10000E94CD006C2D7D2D802F912F0E942301EA
:100F20008AE790E00E94CD00CC2DDD2D4FC0C1306E
:100F3000D10509F05DC020916C0030916D008217E1
:100F4000930739F020916A0030916B008217930764
:100F5000B9F46C2D7D2D802F912F0E9423018FEBF2
:100F600090E00E94CD00602F712F802F912F0E9462
:100F700023018AE790E00E94CD00C02FD12F26C028
:100F8000209162003091630082179307F9F4CD2B12
:100F9000B1F4E114F10459F40E942A033C2D2D2DE3
:100FA000019711F0302F212FE32EF22E02C00E9464
:100FB000B105C7010E943C01C02FD12F07C00E947C
:100FC0008704C7010E943C01C02FD12F9FEF25EA63
:100FD0008EE0915020408040E1F700C0000070CFCB
:100FE00020916200309163008217930779F7D1CF87
:100FF00020916200309163008217930739F7DFCFA9
:101000000E947702789487E690E00E945C088898B6
:1010100089988A980E9491000E9444071F920F921B
:101020000FB60F9211242F938F939F93EF93FF93FB
:101030008BB12CB18871E0916204EF5FEF719091F8
:101040006104E91739F0E0936204F0E0EB59FB4FDB
:10105000208301C082E080936004FF91EF919F9113
:101060008F912F910F900FBE0F901F9018951F9288
:101070000F920FB60F9211248F939F93EF93FF93CC
:101080009091640480916304981761F0E091630487
:10109000EF5FEF71E0936304F0E0EB57FB4F80816B
:1010A0008CB901C05598FF91EF919F918F910F904E
:1010B0000FBE0F901F901895109264041092630455
:1010C000109262041092610499231CF422E02BB95F
:1010D0009F7790BD89B988E98AB986E880BD08956F
:1010E00097FB072E16F4009407D077FD09D00E94D5
:1010F000840807FC05D03EF4909581959F4F089594
:10110000709561957F4F0895AA1BBB1B51E107C0E5
:10111000AA1FBB1FA617B70710F0A61BB70B881F87
:10112000991F5A95A9F780959095BC01CD01089516
:04113000F894FFCF61
:101134006F006E00650064000B000A000100506C33
:10114400656173652077616974003E0053656C6561
:101154006374656420466F6F64004368616E6765FD
:1011640020466F6F640053656C65637420466F6F2F
:1011740064002043616E6E6F742043616E63656C1E
:1011840020003E4F6B003E596573004E6F003220C5
:10119400004D6F6D6F0043686F770050726963652F
:1011A4000053657420746865206E6F20746F20305E
:1011B4003F005361766520746865206368616E67DB
:1011C40065730044697363617264204368616E6788
:1011D40065733F004E6F20466F6F6473204F7264D7
:0611E40065726564000065
:00000001FF
