:100000000C942A000C9447000C9447000C94470071
:100010000C9447000C9447000C9447000C94470044
:100020000C9447000C9447000C9447000C94470034
:100030000C9447000C946E010C9497010C944700AB
:100040000C9447000C9447000C9447000C94470014
:100050000C94470011241FBECFE5D8E0DEBFCDBF12
:1000600010E0A0E6B0E0E4EAF3E002C005900D92F3
:10007000AA3CB107D9F722E0AAECB0E001C01D927A
:10008000A33BB207E1F70E944C010C94D0010C9401
:10009000000095ED9A95F1F70000882314F4DA9AA0
:1000A00001C0DA9886FF02C0DB9A01C0DB9885FFA9
:1000B00002C0DC9A01C0DC9884FF02C0DD9A01C056
:1000C000DD98DE9ADE9883FF02C0DA9A01C0DA98E2
:1000D00082FF02C0DB9A01C0DB9881FF02C0DC9A7C
:1000E00001C0DC9880FF02C0DD9A01C0DD98DE9A75
:1000F000DE980895DF9881E00E9449008FE39FE138
:100100000197F1F700C000000895DF9880680E9411
:100110004900089590E4699F800D11240E94850094
:100120000895D79AD69AD29AD39AD49AD59ADF9824
:10013000DE988FE59AEE0197F1F700C00000DD9A96
:10014000DC9ADB98DA98DE9ADE988FE19EE40197DC
:10015000F1F700C00000DE9ADE988FE193E001978E
:10016000F1F700C00000DE9ADE988FE193E001977E
:10017000F1F700C00000DD98DC9ADB98DA98DE9A8F
:10018000DE9888E20E9449008CE00E9449000E94AB
:100190007A0086E00E9449000895DF9A0E94490093
:1001A000089592E0961B692F0E948A000895CF93CC
:1001B000DF93CDB7DEB7C455D1090FB6F894DEBFD3
:1001C0000FBECDBF81E090E09AAF89AF25E0E0E6B9
:1001D000F0E0DE01DB9601900D922A95E1F724E62E
:1001E00030E061963FAF2EAF619763961FAE1EAEB3
:1001F000639765961FAE1EAE65972CE1FE01F996DA
:10020000AAECB0E001900D922A95E1F722E030E0EF
:100210003E8F2D8F25E0E5E6F0E0DE015F96019050
:100220000D922A95E1F728EC30E03CAB2BAB1EAAEF
:100230001DAA98AF8FAB8CE1FE017D96A6EEB0E0D3
:1002400001900D928A95E1F783E090E09A8389838B
:1002500085E0EAE6F0E0DE01139601900D928A95C2
:10026000E1F78CE291E0988F8F8B1A8E198E1C8E9D
:100270001B8E8CE1FE013196A2E0B1E001900D925F
:100280008A95E1F7CC5ADF4F0FB6F894DEBF0FBE68
:10029000CDBFDF91CF9108950E94D700789487E673
:1002A00090E00E94BC01889889988A980E949100E9
:1002B00081E60E94CD0061E070E082E090E00E9463
:1002C000D10081E60E94CD002FEF83ED90E3215015
:1002D00080409040E1F700C00000EACF1F920F92EB
:1002E0000FB60F9211242F938F939F93EF93FF9349
:1002F0008BB12CB18871E0917002EF5FEF7190913A
:100300006F02E91739F0E0937002F0E0ED58FD4F0D
:10031000208301C082E080936E02FF91EF919F9154
:100320008F912F910F900FBE0F901F9018951F92D5
:100330000F920FB60F9211248F939F93EF93FF9319
:100340009091720280917102981761F0E0917102B0
:10035000EF5FEF71E0937102F0E0ED56FD4F8081A9
:100360008CB901C05598FF91EF919F918F910F909B
:100370000FBE0F901F90189510927202109271028A
:100380001092700210926F0299231CF422E02BB994
:100390009F7790BD89B988E98AB986E880BD0895BC
:0403A000F894FFCFFF
:1003A4004D6F6D6F0043686F7700466F6F64005048
:1003B40072696365004E6F0053657420746865202C
:1003C4006E6F20746F20303F00536176652074682F
:1003D40065206368616E6765730044697363617265
:1003E40064204368616E6765733F004E6F20466FFB
:1003F4006F6473204F726465726564003E4F6B00D6
:0A04040068656C6C6F0020003E007C
:00000001FF
